{"Contracts/CCToken.sol":{"CCtoken":{"abi":[{"inputs":[],"stateMutability":"nonpayable","type":"constructor"},{"inputs":[{"internalType":"address","name":"spender","type":"address"},{"internalType":"uint256","name":"allowance","type":"uint256"},{"internalType":"uint256","name":"needed","type":"uint256"}],"name":"ERC20InsufficientAllowance","type":"error"},{"inputs":[{"internalType":"address","name":"sender","type":"address"},{"internalType":"uint256","name":"balance","type":"uint256"},{"internalType":"uint256","name":"needed","type":"uint256"}],"name":"ERC20InsufficientBalance","type":"error"},{"inputs":[{"internalType":"address","name":"approver","type":"address"}],"name":"ERC20InvalidApprover","type":"error"},{"inputs":[{"internalType":"address","name":"receiver","type":"address"}],"name":"ERC20InvalidReceiver","type":"error"},{"inputs":[{"internalType":"address","name":"sender","type":"address"}],"name":"ERC20InvalidSender","type":"error"},{"inputs":[{"internalType":"address","name":"spender","type":"address"}],"name":"ERC20InvalidSpender","type":"error"},{"inputs":[{"internalType":"address","name":"owner","type":"address"}],"name":"OwnableInvalidOwner","type":"error"},{"inputs":[{"internalType":"address","name":"account","type":"address"}],"name":"OwnableUnauthorizedAccount","type":"error"},{"inputs":[],"name":"ReentrancyGuardReentrantCall","type":"error"},{"anonymous":false,"inputs":[{"indexed":true,"internalType":"address","name":"owner","type":"address"},{"indexed":true,"internalType":"address","name":"spender","type":"address"},{"indexed":false,"internalType":"uint256","name":"value","type":"uint256"}],"name":"Approval","type":"event"},{"anonymous":false,"inputs":[{"indexed":true,"internalType":"address","name":"buyer","type":"address"},{"indexed":false,"internalType":"uint256[]","name":"orderIds","type":"uint256[]"},{"indexed":false,"internalType":"uint256","name":"totalCost","type":"uint256"}],"name":"BatchOrdersFulfilled","type":"event"},{"anonymous":false,"inputs":[{"indexed":true,"internalType":"address","name":"account","type":"address"},{"indexed":false,"internalType":"uint256","name":"amountMinted","type":"uint256"}],"name":"CCTMintedByOwner","type":"event"},{"anonymous":false,"inputs":[{"indexed":true,"internalType":"address","name":"producer","type":"address"},{"indexed":false,"internalType":"uint256","name":"energyProduced","type":"uint256"},{"indexed":false,"internalType":"uint256","name":"creditsMinted","type":"uint256"}],"name":"CarbonCreditsMinted","type":"event"},{"anonymous":false,"inputs":[{"indexed":true,"internalType":"address","name":"account","type":"address"},{"indexed":false,"internalType":"uint256","name":"amount","type":"uint256"}],"name":"CreditsBurned","type":"event"},{"anonymous":false,"inputs":[{"indexed":true,"internalType":"address","name":"account","type":"address"},{"indexed":false,"internalType":"uint256","name":"amount","type":"uint256"},{"indexed":false,"internalType":"string","name":"reason","type":"string"}],"name":"CreditsBurnedWithReason","type":"event"},{"anonymous":false,"inputs":[{"indexed":false,"internalType":"address","name":"device","type":"address"}],"name":"DeviceDeregistered","type":"event"},{"anonymous":false,"inputs":[{"indexed":false,"internalType":"address","name":"device","type":"address"}],"name":"DeviceRegistered","type":"event"},{"anonymous":false,"inputs":[{"indexed":true,"internalType":"address","name":"previousOwner","type":"address"},{"indexed":true,"internalType":"address","name":"newOwner","type":"address"}],"name":"OwnershipTransferred","type":"event"},{"anonymous":false,"inputs":[{"indexed":false,"internalType":"uint256","name":"orderId","type":"uint256"},{"indexed":true,"internalType":"address","name":"buyer","type":"address"},{"indexed":false,"internalType":"uint256","name":"amount","type":"uint256"},{"indexed":false,"internalType":"uint256","name":"totalPaid","type":"uint256"}],"name":"SellOrderFulfilled","type":"event"},{"anonymous":false,"inputs":[{"indexed":false,"internalType":"uint256","name":"orderId","type":"uint256"},{"indexed":true,"internalType":"address","name":"seller","type":"address"},{"indexed":false,"internalType":"uint256","name":"amount","type":"uint256"},{"indexed":false,"internalType":"uint256","name":"pricePerToken","type":"uint256"}],"name":"SellOrderPlaced","type":"event"},{"anonymous":false,"inputs":[{"indexed":true,"internalType":"address","name":"producer","type":"address"},{"indexed":false,"internalType":"uint256","name":"timestamp","type":"uint256"},{"indexed":false,"internalType":"uint256","name":"energyProduced","type":"uint256"},{"indexed":true,"internalType":"address","name":"device","type":"address"}],"name":"SmartMeterDataLogged","type":"event"},{"anonymous":false,"inputs":[{"indexed":true,"internalType":"address","name":"from","type":"address"},{"indexed":true,"internalType":"address","name":"to","type":"address"},{"indexed":false,"internalType":"uint256","name":"value","type":"uint256"}],"name":"Transfer","type":"event"},{"inputs":[],"name":"ENERGY_TO_CREDIT_CONVERSION","outputs":[{"internalType":"uint256","name":"","type":"uint256"}],"stateMutability":"view","type":"function"},{"inputs":[],"name":"FloorPricePerToken","outputs":[{"internalType":"uint256","name":"","type":"uint256"}],"stateMutability":"view","type":"function"},{"inputs":[],"name":"GovtWallet","outputs":[{"internalType":"address","name":"","type":"address"}],"stateMutability":"view","type":"function"},{"inputs":[{"internalType":"address","name":"account","type":"address"},{"internalType":"uint256","name":"amount","type":"uint256"},{"internalType":"string","name":"reason","type":"string"}],"name":"OwnerburnCredits","outputs":[],"stateMutability":"nonpayable","type":"function"},{"inputs":[{"internalType":"uint256","name":"amt","type":"uint256"}],"name":"UtilizeCarbonCredit","outputs":[],"stateMutability":"nonpayable","type":"function"},{"inputs":[{"internalType":"address","name":"owner","type":"address"},{"internalType":"address","name":"spender","type":"address"}],"name":"allowance","outputs":[{"internalType":"uint256","name":"","type":"uint256"}],"stateMutability":"view","type":"function"},{"inputs":[{"internalType":"address","name":"spender","type":"address"},{"internalType":"uint256","name":"value","type":"uint256"}],"name":"approve","outputs":[{"internalType":"bool","name":"","type":"bool"}],"stateMutability":"nonpayable","type":"function"},{"inputs":[{"internalType":"address","name":"account","type":"address"}],"name":"balanceOf","outputs":[{"internalType":"uint256","name":"","type":"uint256"}],"stateMutability":"view","type":"function"},{"inputs":[{"internalType":"uint256","name":"newRatio","type":"uint256"}],"name":"changeEnergyToCreditRatio","outputs":[],"stateMutability":"nonpayable","type":"function"},{"inputs":[{"internalType":"uint256","name":"newPrice","type":"uint256"}],"name":"changeFloorPricePerToken","outputs":[],"stateMutability":"nonpayable","type":"function"},{"inputs":[{"internalType":"address","name":"newAddress","type":"address"}],"name":"changeGovtWallet","outputs":[],"stateMutability":"nonpayable","type":"function"},{"inputs":[],"name":"decimals","outputs":[{"internalType":"uint8","name":"","type":"uint8"}],"stateMutability":"view","type":"function"},{"inputs":[{"internalType":"address","name":"device","type":"address"}],"name":"deregisterDevice","outputs":[],"stateMutability":"nonpayable","type":"function"},{"inputs":[{"internalType":"uint256","name":"energyProduced","type":"uint256"},{"internalType":"uint256","name":"timestamp","type":"uint256"}],"name":"earnCarbonCredit","outputs":[{"internalType":"uint256","name":"creditsEarned","type":"uint256"}],"stateMutability":"nonpayable","type":"function"},{"inputs":[{"internalType":"uint256[]","name":"orderIds","type":"uint256[]"},{"internalType":"uint256[]","name":"amountsToBuy","type":"uint256[]"},{"internalType":"uint256[]","name":"pricesPerToken","type":"uint256[]"}],"name":"fulfillBatchOrders","outputs":[],"stateMutability":"payable","type":"function"},{"inputs":[{"internalType":"uint256","name":"orderId","type":"uint256"},{"internalType":"uint256","name":"amountToBuy","type":"uint256"}],"name":"fulfillSellOrder","outputs":[{"internalType":"bool","name":"","type":"bool"}],"stateMutability":"payable","type":"function"},{"inputs":[{"internalType":"address","name":"producer","type":"address"},{"internalType":"uint256","name":"timestamp","type":"uint256"},{"internalType":"uint256","name":"energyProduced","type":"uint256"}],"name":"logSmartMeterData","outputs":[{"internalType":"bool","name":"success","type":"bool"}],"stateMutability":"nonpayable","type":"function"},{"inputs":[{"internalType":"address","name":"account","type":"address"},{"internalType":"uint256","name":"amount","type":"uint256"}],"name":"mintCCT","outputs":[],"stateMutability":"nonpayable","type":"function"},{"inputs":[],"name":"name","outputs":[{"internalType":"string","name":"","type":"string"}],"stateMutability":"view","type":"function"},{"inputs":[],"name":"owner","outputs":[{"internalType":"address","name":"","type":"address"}],"stateMutability":"view","type":"function"},{"inputs":[{"internalType":"uint256","name":"amountToSell","type":"uint256"},{"internalType":"uint256","name":"pricePerToken","type":"uint256"}],"name":"placeSellOrder","outputs":[{"internalType":"uint256","name":"orderId","type":"uint256"}],"stateMutability":"nonpayable","type":"function"},{"inputs":[{"internalType":"address","name":"device","type":"address"}],"name":"registerDevice","outputs":[],"stateMutability":"nonpayable","type":"function"},{"inputs":[{"internalType":"address","name":"","type":"address"}],"name":"registeredDevices","outputs":[{"internalType":"bool","name":"","type":"bool"}],"stateMutability":"view","type":"function"},{"inputs":[],"name":"renounceOwnership","outputs":[],"stateMutability":"nonpayable","type":"function"},{"inputs":[{"internalType":"uint256","name":"","type":"uint256"}],"name":"sellOrders","outputs":[{"internalType":"address","name":"seller","type":"address"},{"internalType":"uint256","name":"amount","type":"uint256"},{"internalType":"uint256","name":"pricePerToken","type":"uint256"},{"internalType":"bool","name":"fulfilled","type":"bool"}],"stateMutability":"view","type":"function"},{"inputs":[{"internalType":"address","name":"","type":"address"},{"internalType":"uint256","name":"","type":"uint256"}],"name":"smartMeterData","outputs":[{"internalType":"uint256","name":"","type":"uint256"}],"stateMutability":"view","type":"function"},{"inputs":[],"name":"symbol","outputs":[{"internalType":"string","name":"","type":"string"}],"stateMutability":"view","type":"function"},{"inputs":[],"name":"totalSupply","outputs":[{"internalType":"uint256","name":"","type":"uint256"}],"stateMutability":"view","type":"function"},{"inputs":[{"internalType":"address","name":"to","type":"address"},{"internalType":"uint256","name":"value","type":"uint256"}],"name":"transfer","outputs":[{"internalType":"bool","name":"","type":"bool"}],"stateMutability":"nonpayable","type":"function"},{"inputs":[{"internalType":"address","name":"from","type":"address"},{"internalType":"address","name":"to","type":"address"},{"internalType":"uint256","name":"value","type":"uint256"}],"name":"transferFrom","outputs":[{"internalType":"bool","name":"","type":"bool"}],"stateMutability":"nonpayable","type":"function"},{"inputs":[{"internalType":"address","name":"newOwner","type":"address"}],"name":"transferOwnership","outputs":[],"stateMutability":"nonpayable","type":"function"}],"evm":{"bytecode":{"linkReferences":{},"object":"60806040526064600755730afa610b923e7cf8dd4f0e929b5f0cd91c1a4d9e600860006101000a81548173ffffffffffffffffffffffffffffffffffffffff021916908373ffffffffffffffffffffffffffffffffffffffff1602179055506298968060095534801561007157600080fd5b50336040518060400160405280601381526020017f436172626f6e2043726564697420546f6b656e000000000000000000000000008152506040518060400160405280600381526020017f434354000000000000000000000000000000000000000000000000000000000081525081600390816100ee91906104a6565b5080600490816100fe91906104a6565b505050600073ffffffffffffffffffffffffffffffffffffffff168173ffffffffffffffffffffffffffffffffffffffff16036101735760006040517f1e4fbdf700000000000000000000000000000000000000000000000000000000815260040161016a91906105b9565b60405180910390fd5b6101828161019060201b60201c565b5060016006819055506105d4565b6000600560009054906101000a900473ffffffffffffffffffffffffffffffffffffffff16905081600560006101000a81548173ffffffffffffffffffffffffffffffffffffffff021916908373ffffffffffffffffffffffffffffffffffffffff1602179055508173ffffffffffffffffffffffffffffffffffffffff168173ffffffffffffffffffffffffffffffffffffffff167f8be0079c531659141344cd1fd0a4f28419497f9722a3daafe3b4186f6b6457e060405160405180910390a35050565b600081519050919050565b7f4e487b7100000000000000000000000000000000000000000000000000000000600052604160045260246000fd5b7f4e487b7100000000000000000000000000000000000000000000000000000000600052602260045260246000fd5b600060028204905060018216806102d757607f821691505b6020821081036102ea576102e9610290565b5b50919050565b60008190508160005260206000209050919050565b60006020601f8301049050919050565b600082821b905092915050565b6000600883026103527fffffffffffffffffffffffffffffffffffffffffffffffffffffffffffffffff82610315565b61035c8683610315565b95508019841693508086168417925050509392505050565b6000819050919050565b6000819050919050565b60006103a361039e61039984610374565b61037e565b610374565b9050919050565b6000819050919050565b6103bd83610388565b6103d16103c9826103aa565b848454610322565b825550505050565b600090565b6103e66103d9565b6103f18184846103b4565b505050565b5b818110156104155761040a6000826103de565b6001810190506103f7565b5050565b601f82111561045a5761042b816102f0565b61043484610305565b81016020851015610443578190505b61045761044f85610305565b8301826103f6565b50505b505050565b600082821c905092915050565b600061047d6000198460080261045f565b1980831691505092915050565b6000610496838361046c565b9150826002028217905092915050565b6104af82610256565b67ffffffffffffffff8111156104c8576104c7610261565b5b6104d282546102bf565b6104dd828285610419565b600060209050601f83116001811461051057600084156104fe578287015190505b610508858261048a565b865550610570565b601f19841661051e866102f0565b60005b8281101561054657848901518255600182019150602085019450602081019050610521565b86831015610563578489015161055f601f89168261046c565b8355505b6001600288020188555050505b505050505050565b600073ffffffffffffffffffffffffffffffffffffffff82169050919050565b60006105a382610578565b9050919050565b6105b381610598565b82525050565b60006020820190506105ce60008301846105aa565b92915050565b613e29806105e36000396000f3fe6080604052600436106101d85760003560e01c8063715018a611610102578063b8f8bbdf11610095578063dd62ed3e11610064578063dd62ed3e146106df578063ec7d36401461071c578063f2fde38b14610759578063f7062c1b14610782576101d8565b8063b8f8bbdf1461060a578063c316787c14610647578063d5bb554f14610684578063d9b60d97146106af576101d8565b806395d89b41116100d157806395d89b411461053c578063a4406bcd14610567578063a77fcf5b146105a4578063a9059cbb146105cd576101d8565b8063715018a6146104a6578063791f2f11146104bd578063862eb703146104e85780638da5cb5b14610511576101d8565b80632166c70e1161017a5780633e83eb09116101495780633e83eb09146103d75780634a8393f3146104005780636dc7b9a51461044057806370a0823114610469576101d8565b80632166c70e146103165780632375fce01461033257806323b872dd1461036f578063313ce567146103ac576101d8565b80630ca67e5a116101b65780630ca67e5a146102705780630edc632e1461029957806318160ddd146102c25780631e2c2662146102ed576101d8565b806306377e78146101dd57806306fdde0314610208578063095ea7b314610233575b600080fd5b3480156101e957600080fd5b506101f26107ab565b6040516101ff91906128b7565b60405180910390f35b34801561021457600080fd5b5061021d6107b1565b60405161022a9190612962565b60405180910390f35b34801561023f57600080fd5b5061025a60048036038101906102559190612a18565b610843565b6040516102679190612a73565b60405180910390f35b34801561027c57600080fd5b5061029760048036038101906102929190612a18565b610866565b005b3480156102a557600080fd5b506102c060048036038101906102bb9190612a8e565b610939565b005b3480156102ce57600080fd5b506102d761094b565b6040516102e491906128b7565b60405180910390f35b3480156102f957600080fd5b50610314600480360381019061030f9190612b20565b610955565b005b610330600480360381019061032b9190612bea565b610a05565b005b34801561033e57600080fd5b5061035960048036038101906103549190612c9e565b611069565b6040516103669190612a73565b60405180910390f35b34801561037b57600080fd5b5061039660048036038101906103919190612cf1565b611294565b6040516103a39190612a73565b60405180910390f35b3480156103b857600080fd5b506103c16112c3565b6040516103ce9190612d60565b60405180910390f35b3480156103e357600080fd5b506103fe60048036038101906103f99190612d7b565b6112cc565b005b34801561040c57600080fd5b5061042760048036038101906104229190612a8e565b611318565b6040516104379493929190612db7565b60405180910390f35b34801561044c57600080fd5b5061046760048036038101906104629190612d7b565b611385565b005b34801561047557600080fd5b50610490600480360381019061048b9190612d7b565b61141f565b60405161049d91906128b7565b60405180910390f35b3480156104b257600080fd5b506104bb611467565b005b3480156104c957600080fd5b506104d261147b565b6040516104df91906128b7565b60405180910390f35b3480156104f457600080fd5b5061050f600480360381019061050a9190612a8e565b611481565b005b34801561051d57600080fd5b50610526611493565b6040516105339190612dfc565b60405180910390f35b34801561054857600080fd5b506105516114bd565b60405161055e9190612962565b60405180910390f35b34801561057357600080fd5b5061058e60048036038101906105899190612e17565b61154f565b60405161059b91906128b7565b60405180910390f35b3480156105b057600080fd5b506105cb60048036038101906105c69190612a8e565b61178c565b005b3480156105d957600080fd5b506105f460048036038101906105ef9190612a18565b611837565b6040516106019190612a73565b60405180910390f35b34801561061657600080fd5b50610631600480360381019061062c9190612d7b565b61185a565b60405161063e9190612a73565b60405180910390f35b34801561065357600080fd5b5061066e60048036038101906106699190612a18565b61187a565b60405161067b91906128b7565b60405180910390f35b34801561069057600080fd5b5061069961189f565b6040516106a69190612dfc565b60405180910390f35b6106c960048036038101906106c49190612e17565b6118c5565b6040516106d69190612a73565b60405180910390f35b3480156106eb57600080fd5b5061070660048036038101906107019190612e57565b611c64565b60405161071391906128b7565b60405180910390f35b34801561072857600080fd5b50610743600480360381019061073e9190612e17565b611ceb565b60405161075091906128b7565b60405180910390f35b34801561076557600080fd5b50610780600480360381019061077b9190612d7b565b611f3e565b005b34801561078e57600080fd5b506107a960048036038101906107a49190612d7b565b611fc4565b005b60095481565b6060600380546107c090612ec6565b80601f01602080910402602001604051908101604052809291908181526020018280546107ec90612ec6565b80156108395780601f1061080e57610100808354040283529160200191610839565b820191906000526020600020905b81548152906001019060200180831161081c57829003601f168201915b5050505050905090565b60008061084e61205e565b905061085b818585612066565b600191505092915050565b61086e612078565b600073ffffffffffffffffffffffffffffffffffffffff168273ffffffffffffffffffffffffffffffffffffffff16036108dd576040517f08c379a00000000000000000000000000000000000000000000000000000000081526004016108d490612f43565b60405180910390fd5b6108e782826120ff565b8173ffffffffffffffffffffffffffffffffffffffff167fcb7703684f2bc174feba81d016aa10af41aac81697e104478562989f0c1781768260405161092d91906128b7565b60405180910390a25050565b610941612078565b8060098190555050565b6000600254905090565b61095d612078565b600082829050116109a3576040517f08c379a000000000000000000000000000000000000000000000000000000000815260040161099a90612faf565b60405180910390fd5b6109ad8484612181565b8373ffffffffffffffffffffffffffffffffffffffff167f5351714dc577522ae9769c8d2ffb81bf26d30ee8f7da174a2eba4de43663c37e8484846040516109f79392919061300b565b60405180910390a250505050565b610a0d612203565b60008686905011610a53576040517f08c379a0000000000000000000000000000000000000000000000000000000008152600401610a4a90613089565b60405180910390fd5b838390508686905014610a9b576040517f08c379a0000000000000000000000000000000000000000000000000000000008152600401610a92906130f5565b60405180910390fd5b818190508686905014610ae3576040517f08c379a0000000000000000000000000000000000000000000000000000000008152600401610ada90613161565b60405180910390fd5b60008087879050905060005b81811015610cec576000898983818110610b0c57610b0b613181565b5b9050602002013590506000888884818110610b2a57610b29613181565b5b9050602002013590506000878785818110610b4857610b47613181565b5b905060200201359050600c805490508310610b98576040517f08c379a0000000000000000000000000000000000000000000000000000000008152600401610b8f906131fc565b60405180910390fd5b6000600c8481548110610bae57610bad613181565b5b906000526020600020906004020190508060030160009054906101000a900460ff1615610c10576040517f08c379a0000000000000000000000000000000000000000000000000000000008152600401610c0790613268565b60405180910390fd5b600083118015610c24575080600101548311155b610c63576040517f08c379a0000000000000000000000000000000000000000000000000000000008152600401610c5a906132d4565b60405180910390fd5b80600201548214610ca9576040517f08c379a0000000000000000000000000000000000000000000000000000000008152600401610ca090613340565b60405180910390fd5b6000670de0b6b3a76400008385610cc0919061338f565b610cca9190613400565b90508088610cd89190613431565b975050505050508080600101915050610aef565b50348214610d2f576040517f08c379a0000000000000000000000000000000000000000000000000000000008152600401610d26906134b1565b60405180910390fd5b60005b81811015610df1576000898983818110610d4f57610d4e613181565b5b9050602002013590506000888884818110610d6d57610d6c613181565b5b9050602002013590506000600c8381548110610d8c57610d8b613181565b5b9060005260206000209060040201905081816001016000828254610db091906134d1565b925050819055506000816001015403610de15760018160030160006101000a81548160ff0219169083151502179055505b5050508080600101915050610d32565b5060005b81811015611004576000898983818110610e1257610e11613181565b5b9050602002013590506000888884818110610e3057610e2f613181565b5b9050602002013590506000878785818110610e4e57610e4d613181565b5b9050602002013590506000600c8481548110610e6d57610e6c613181565b5b906000526020600020906004020190506000670de0b6b3a76400008385610e94919061338f565b610e9e9190613400565b9050610ecf8260000160009054906101000a900473ffffffffffffffffffffffffffffffffffffffff163386612249565b60008260000160009054906101000a900473ffffffffffffffffffffffffffffffffffffffff1673ffffffffffffffffffffffffffffffffffffffff1682604051610f1990613536565b60006040518083038185875af1925050503d8060008114610f56576040519150601f19603f3d011682016040523d82523d6000602084013e610f5b565b606091505b5050905080610f9f576040517f08c379a0000000000000000000000000000000000000000000000000000000008152600401610f9690613597565b60405180910390fd5b3373ffffffffffffffffffffffffffffffffffffffff167f238dabee9aa5210c9ac8d126d3f174d36e9d3c013687c3cdce136767f87ebaf9878785604051610fe9939291906135b7565b60405180910390a25050505050508080600101915050610df5565b503373ffffffffffffffffffffffffffffffffffffffff167f64f09cb8407ab6fb95316333f6360ddc8a9d3b72ff03fa93fa748508f0e1c0b289898560405161104f93929190613669565b60405180910390a2505061106161233d565b505050505050565b6000600b60003373ffffffffffffffffffffffffffffffffffffffff1673ffffffffffffffffffffffffffffffffffffffff16815260200190815260200160002060009054906101000a900460ff166110f7576040517f08c379a00000000000000000000000000000000000000000000000000000000081526004016110ee906136e7565b60405180910390fd5b6000821161113a576040517f08c379a000000000000000000000000000000000000000000000000000000000815260040161113190613779565b60405180910390fd5b6000600a60008673ffffffffffffffffffffffffffffffffffffffff1673ffffffffffffffffffffffffffffffffffffffff168152602001908152602001600020600085815260200190815260200160002054146111cd576040517f08c379a00000000000000000000000000000000000000000000000000000000081526004016111c490613831565b60405180910390fd5b81600a60008673ffffffffffffffffffffffffffffffffffffffff1673ffffffffffffffffffffffffffffffffffffffff1681526020019081526020016000206000858152602001908152602001600020819055503373ffffffffffffffffffffffffffffffffffffffff168473ffffffffffffffffffffffffffffffffffffffff167f582653f5e42c9c10a9ffdb53761f875742ba41de41701939ac0e7e5d565c0dd08585604051611281929190613851565b60405180910390a3600190509392505050565b60008061129f61205e565b90506112ac858285612347565b6112b7858585612249565b60019150509392505050565b60006012905090565b6112d4612078565b80600860006101000a81548173ffffffffffffffffffffffffffffffffffffffff021916908373ffffffffffffffffffffffffffffffffffffffff16021790555050565b600c818154811061132857600080fd5b90600052602060002090600402016000915090508060000160009054906101000a900473ffffffffffffffffffffffffffffffffffffffff16908060010154908060020154908060030160009054906101000a900460ff16905084565b61138d612078565b6001600b60008373ffffffffffffffffffffffffffffffffffffffff1673ffffffffffffffffffffffffffffffffffffffff16815260200190815260200160002060006101000a81548160ff0219169083151502179055507f05d7f0c690676ba31675b45bcdb9ff4c34bb10744ec89d329eacd93c79ecc029816040516114149190612dfc565b60405180910390a150565b60008060008373ffffffffffffffffffffffffffffffffffffffff1673ffffffffffffffffffffffffffffffffffffffff168152602001908152602001600020549050919050565b61146f612078565b61147960006123dc565b565b60075481565b611489612078565b8060078190555050565b6000600560009054906101000a900473ffffffffffffffffffffffffffffffffffffffff16905090565b6060600480546114cc90612ec6565b80601f01602080910402602001604051908101604052809291908181526020018280546114f890612ec6565b80156115455780601f1061151a57610100808354040283529160200191611545565b820191906000526020600020905b81548152906001019060200180831161152857829003601f168201915b5050505050905090565b6000600954821015611596576040517f08c379a000000000000000000000000000000000000000000000000000000000815260040161158d906138ec565b60405180910390fd5b826115a03361141f565b10156115e1576040517f08c379a00000000000000000000000000000000000000000000000000000000081526004016115d890613958565b60405180910390fd5b826115ec3330611c64565b101561162d576040517f08c379a0000000000000000000000000000000000000000000000000000000008152600401611624906139ea565b60405180910390fd5b600c60405180608001604052803373ffffffffffffffffffffffffffffffffffffffff16815260200185815260200184815260200160001515815250908060018154018082558091505060019003906000526020600020906004020160009091909190915060008201518160000160006101000a81548173ffffffffffffffffffffffffffffffffffffffff021916908373ffffffffffffffffffffffffffffffffffffffff160217905550602082015181600101556040820151816002015560608201518160030160006101000a81548160ff02191690831515021790555050503373ffffffffffffffffffffffffffffffffffffffff167f08d47ee76f228623f8343f2cec0e0866027b6aad380ab051032dbb85120681736001600c8054905061175991906134d1565b858560405161176a939291906135b7565b60405180910390a26001600c8054905061178491906134d1565b905092915050565b611794612203565b600081116117d7576040517f08c379a00000000000000000000000000000000000000000000000000000000081526004016117ce90613a56565b60405180910390fd5b806117e13361141f565b1015611822576040517f08c379a000000000000000000000000000000000000000000000000000000000815260040161181990613ae8565b60405180910390fd5b61182c3382612181565b61183461233d565b50565b60008061184261205e565b905061184f818585612249565b600191505092915050565b600b6020528060005260406000206000915054906101000a900460ff1681565b600a602052816000526040600020602052806000526040600020600091509150505481565b600860009054906101000a900473ffffffffffffffffffffffffffffffffffffffff1681565b60006118cf612203565b600c805490508310611916576040517f08c379a000000000000000000000000000000000000000000000000000000000815260040161190d906131fc565b60405180910390fd5b6000600c848154811061192c5761192b613181565b5b906000526020600020906004020190508060030160009054906101000a900460ff161561198e576040517f08c379a000000000000000000000000000000000000000000000000000000000815260040161198590613268565b60405180910390fd5b6000831180156119a2575080600101548311155b6119e1576040517f08c379a00000000000000000000000000000000000000000000000000000000081526004016119d8906132d4565b60405180910390fd5b6000670de0b6b3a76400008260020154856119fc919061338f565b611a069190613400565b9050803414611a4a576040517f08c379a0000000000000000000000000000000000000000000000000000000008152600401611a41906134b1565b60405180910390fd5b83611a788360000160009054906101000a900473ffffffffffffffffffffffffffffffffffffffff1661141f565b1015611ab9576040517f08c379a0000000000000000000000000000000000000000000000000000000008152600401611ab090613b7a565b60405180910390fd5b83826001016000828254611acd91906134d1565b925050819055506000826001015403611afe5760018260030160006101000a81548160ff0219169083151502179055505b611b2d8260000160009054906101000a900473ffffffffffffffffffffffffffffffffffffffff163386612249565b60008260000160009054906101000a900473ffffffffffffffffffffffffffffffffffffffff1673ffffffffffffffffffffffffffffffffffffffff1634604051611b7790613536565b60006040518083038185875af1925050503d8060008114611bb4576040519150601f19603f3d011682016040523d82523d6000602084013e611bb9565b606091505b5050905080611bfd576040517f08c379a0000000000000000000000000000000000000000000000000000000008152600401611bf490613c0c565b60405180910390fd5b3373ffffffffffffffffffffffffffffffffffffffff167f238dabee9aa5210c9ac8d126d3f174d36e9d3c013687c3cdce136767f87ebaf9878734604051611c47939291906135b7565b60405180910390a260019350505050611c5e61233d565b92915050565b6000600160008473ffffffffffffffffffffffffffffffffffffffff1673ffffffffffffffffffffffffffffffffffffffff16815260200190815260200160002060008373ffffffffffffffffffffffffffffffffffffffff1673ffffffffffffffffffffffffffffffffffffffff16815260200190815260200160002054905092915050565b6000808311611d2f576040517f08c379a0000000000000000000000000000000000000000000000000000000008152600401611d2690613779565b60405180910390fd5b6000600a60003373ffffffffffffffffffffffffffffffffffffffff1673ffffffffffffffffffffffffffffffffffffffff168152602001908152602001600020600084815260200190815260200160002054905060008111611dc7576040517f08c379a0000000000000000000000000000000000000000000000000000000008152600401611dbe90613c9e565b60405180910390fd5b83811015611e0a576040517f08c379a0000000000000000000000000000000000000000000000000000000008152600401611e0190613d0a565b60405180910390fd5b6000600754670de0b6b3a764000086611e23919061338f565b611e2d9190613400565b905060008111611e72576040517f08c379a0000000000000000000000000000000000000000000000000000000008152600401611e6990613d9c565b60405180910390fd5b84600a60003373ffffffffffffffffffffffffffffffffffffffff1673ffffffffffffffffffffffffffffffffffffffff16815260200190815260200160002060008681526020019081526020016000206000828254611ed291906134d1565b92505081905550611ee333826120ff565b3373ffffffffffffffffffffffffffffffffffffffff167fdfa85d8cd1ea6294fb44ee96c63e3040f1a4f3eb485fce114ca8bf9c4b3678698683604051611f2b929190613851565b60405180910390a2809250505092915050565b611f46612078565b600073ffffffffffffffffffffffffffffffffffffffff168173ffffffffffffffffffffffffffffffffffffffff1603611fb85760006040517f1e4fbdf7000000000000000000000000000000000000000000000000000000008152600401611faf9190612dfc565b60405180910390fd5b611fc1816123dc565b50565b611fcc612078565b6000600b60008373ffffffffffffffffffffffffffffffffffffffff1673ffffffffffffffffffffffffffffffffffffffff16815260200190815260200160002060006101000a81548160ff0219169083151502179055507fe8b34ba430bcb588afaa482177753a446c3f19e29f790bb3b4cfb8efd9e82964816040516120539190612dfc565b60405180910390a150565b600033905090565b61207383838360016124a2565b505050565b61208061205e565b73ffffffffffffffffffffffffffffffffffffffff1661209e611493565b73ffffffffffffffffffffffffffffffffffffffff16146120fd576120c161205e565b6040517f118cdaa70000000000000000000000000000000000000000000000000000000081526004016120f49190612dfc565b60405180910390fd5b565b600073ffffffffffffffffffffffffffffffffffffffff168273ffffffffffffffffffffffffffffffffffffffff16036121715760006040517fec442f050000000000000000000000000000000000000000000000000000000081526004016121689190612dfc565b60405180910390fd5b61217d60008383612679565b5050565b600073ffffffffffffffffffffffffffffffffffffffff168273ffffffffffffffffffffffffffffffffffffffff16036121f35760006040517f96c6fd1e0000000000000000000000000000000000000000000000000000000081526004016121ea9190612dfc565b60405180910390fd5b6121ff82600083612679565b5050565b60026006540361223f576040517f3ee5aeb500000000000000000000000000000000000000000000000000000000815260040160405180910390fd5b6002600681905550565b600073ffffffffffffffffffffffffffffffffffffffff168373ffffffffffffffffffffffffffffffffffffffff16036122bb5760006040517f96c6fd1e0000000000000000000000000000000000000000000000000000000081526004016122b29190612dfc565b60405180910390fd5b600073ffffffffffffffffffffffffffffffffffffffff168273ffffffffffffffffffffffffffffffffffffffff160361232d5760006040517fec442f050000000000000000000000000000000000000000000000000000000081526004016123249190612dfc565b60405180910390fd5b612338838383612679565b505050565b6001600681905550565b60006123538484611c64565b90507fffffffffffffffffffffffffffffffffffffffffffffffffffffffffffffffff8110156123d657818110156123c6578281836040517ffb8f41b20000000000000000000000000000000000000000000000000000000081526004016123bd93929190613dbc565b60405180910390fd5b6123d5848484840360006124a2565b5b50505050565b6000600560009054906101000a900473ffffffffffffffffffffffffffffffffffffffff16905081600560006101000a81548173ffffffffffffffffffffffffffffffffffffffff021916908373ffffffffffffffffffffffffffffffffffffffff1602179055508173ffffffffffffffffffffffffffffffffffffffff168173ffffffffffffffffffffffffffffffffffffffff167f8be0079c531659141344cd1fd0a4f28419497f9722a3daafe3b4186f6b6457e060405160405180910390a35050565b600073ffffffffffffffffffffffffffffffffffffffff168473ffffffffffffffffffffffffffffffffffffffff16036125145760006040517fe602df0500000000000000000000000000000000000000000000000000000000815260040161250b9190612dfc565b60405180910390fd5b600073ffffffffffffffffffffffffffffffffffffffff168373ffffffffffffffffffffffffffffffffffffffff16036125865760006040517f94280d6200000000000000000000000000000000000000000000000000000000815260040161257d9190612dfc565b60405180910390fd5b81600160008673ffffffffffffffffffffffffffffffffffffffff1673ffffffffffffffffffffffffffffffffffffffff16815260200190815260200160002060008573ffffffffffffffffffffffffffffffffffffffff1673ffffffffffffffffffffffffffffffffffffffff168152602001908152602001600020819055508015612673578273ffffffffffffffffffffffffffffffffffffffff168473ffffffffffffffffffffffffffffffffffffffff167f8c5be1e5ebec7d5bd14f71427d1e84f3dd0314c0f7b2291e5b200ac8c7c3b9258460405161266a91906128b7565b60405180910390a35b50505050565b600073ffffffffffffffffffffffffffffffffffffffff168373ffffffffffffffffffffffffffffffffffffffff16036126cb5780600260008282546126bf9190613431565b9250508190555061279e565b60008060008573ffffffffffffffffffffffffffffffffffffffff1673ffffffffffffffffffffffffffffffffffffffff16815260200190815260200160002054905081811015612757578381836040517fe450d38c00000000000000000000000000000000000000000000000000000000815260040161274e93929190613dbc565b60405180910390fd5b8181036000808673ffffffffffffffffffffffffffffffffffffffff1673ffffffffffffffffffffffffffffffffffffffff16815260200190815260200160002081905550505b600073ffffffffffffffffffffffffffffffffffffffff168273ffffffffffffffffffffffffffffffffffffffff16036127e75780600260008282540392505081905550612834565b806000808473ffffffffffffffffffffffffffffffffffffffff1673ffffffffffffffffffffffffffffffffffffffff168152602001908152602001600020600082825401925050819055505b8173ffffffffffffffffffffffffffffffffffffffff168373ffffffffffffffffffffffffffffffffffffffff167fddf252ad1be2c89b69c2b068fc378daa952ba7f163c4a11628f55a4df523b3ef8360405161289191906128b7565b60405180910390a3505050565b6000819050919050565b6128b18161289e565b82525050565b60006020820190506128cc60008301846128a8565b92915050565b600081519050919050565b600082825260208201905092915050565b60005b8381101561290c5780820151818401526020810190506128f1565b60008484015250505050565b6000601f19601f8301169050919050565b6000612934826128d2565b61293e81856128dd565b935061294e8185602086016128ee565b61295781612918565b840191505092915050565b6000602082019050818103600083015261297c8184612929565b905092915050565b600080fd5b600080fd5b600073ffffffffffffffffffffffffffffffffffffffff82169050919050565b60006129b98261298e565b9050919050565b6129c9816129ae565b81146129d457600080fd5b50565b6000813590506129e6816129c0565b92915050565b6129f58161289e565b8114612a0057600080fd5b50565b600081359050612a12816129ec565b92915050565b60008060408385031215612a2f57612a2e612984565b5b6000612a3d858286016129d7565b9250506020612a4e85828601612a03565b9150509250929050565b60008115159050919050565b612a6d81612a58565b82525050565b6000602082019050612a886000830184612a64565b92915050565b600060208284031215612aa457612aa3612984565b5b6000612ab284828501612a03565b91505092915050565b600080fd5b600080fd5b600080fd5b60008083601f840112612ae057612adf612abb565b5b8235905067ffffffffffffffff811115612afd57612afc612ac0565b5b602083019150836001820283011115612b1957612b18612ac5565b5b9250929050565b60008060008060608587031215612b3a57612b39612984565b5b6000612b48878288016129d7565b9450506020612b5987828801612a03565b935050604085013567ffffffffffffffff811115612b7a57612b79612989565b5b612b8687828801612aca565b925092505092959194509250565b60008083601f840112612baa57612ba9612abb565b5b8235905067ffffffffffffffff811115612bc757612bc6612ac0565b5b602083019150836020820283011115612be357612be2612ac5565b5b9250929050565b60008060008060008060608789031215612c0757612c06612984565b5b600087013567ffffffffffffffff811115612c2557612c24612989565b5b612c3189828a01612b94565b9650965050602087013567ffffffffffffffff811115612c5457612c53612989565b5b612c6089828a01612b94565b9450945050604087013567ffffffffffffffff811115612c8357612c82612989565b5b612c8f89828a01612b94565b92509250509295509295509295565b600080600060608486031215612cb757612cb6612984565b5b6000612cc5868287016129d7565b9350506020612cd686828701612a03565b9250506040612ce786828701612a03565b9150509250925092565b600080600060608486031215612d0a57612d09612984565b5b6000612d18868287016129d7565b9350506020612d29868287016129d7565b9250506040612d3a86828701612a03565b9150509250925092565b600060ff82169050919050565b612d5a81612d44565b82525050565b6000602082019050612d756000830184612d51565b92915050565b600060208284031215612d9157612d90612984565b5b6000612d9f848285016129d7565b91505092915050565b612db1816129ae565b82525050565b6000608082019050612dcc6000830187612da8565b612dd960208301866128a8565b612de660408301856128a8565b612df36060830184612a64565b95945050505050565b6000602082019050612e116000830184612da8565b92915050565b60008060408385031215612e2e57612e2d612984565b5b6000612e3c85828601612a03565b9250506020612e4d85828601612a03565b9150509250929050565b60008060408385031215612e6e57612e6d612984565b5b6000612e7c858286016129d7565b9250506020612e8d858286016129d7565b9150509250929050565b7f4e487b7100000000000000000000000000000000000000000000000000000000600052602260045260246000fd5b60006002820490506001821680612ede57607f821691505b602082108103612ef157612ef0612e97565b5b50919050565b7f4e6f7420612076616c6964206164647265737300000000000000000000000000600082015250565b6000612f2d6013836128dd565b9150612f3882612ef7565b602082019050919050565b60006020820190508181036000830152612f5c81612f20565b9050919050565b7f526561736f6e206d7573742062652070726f7669646564000000000000000000600082015250565b6000612f996017836128dd565b9150612fa482612f63565b602082019050919050565b60006020820190508181036000830152612fc881612f8c565b9050919050565b82818337600083830152505050565b6000612fea83856128dd565b9350612ff7838584612fcf565b61300083612918565b840190509392505050565b600060408201905061302060008301866128a8565b8181036020830152613033818486612fde565b9050949350505050565b7f456d707479206f72646572206172726179000000000000000000000000000000600082015250565b60006130736011836128dd565b915061307e8261303d565b602082019050919050565b600060208201905081810360008301526130a281613066565b9050919050565b7f4d69736d617463686564206f7264657220646174610000000000000000000000600082015250565b60006130df6015836128dd565b91506130ea826130a9565b602082019050919050565b6000602082019050818103600083015261310e816130d2565b9050919050565b7f4d69736d61746368656420707269636520646174610000000000000000000000600082015250565b600061314b6015836128dd565b915061315682613115565b602082019050919050565b6000602082019050818103600083015261317a8161313e565b9050919050565b7f4e487b7100000000000000000000000000000000000000000000000000000000600052603260045260246000fd5b7f496e76616c6964206f7264657220494400000000000000000000000000000000600082015250565b60006131e66010836128dd565b91506131f1826131b0565b602082019050919050565b60006020820190508181036000830152613215816131d9565b9050919050565b7f4f7264657220616c72656164792066756c66696c6c6564000000000000000000600082015250565b60006132526017836128dd565b915061325d8261321c565b602082019050919050565b6000602082019050818103600083015261328181613245565b9050919050565b7f496e76616c696420707572636861736520616d6f756e74000000000000000000600082015250565b60006132be6017836128dd565b91506132c982613288565b602082019050919050565b600060208201905081810360008301526132ed816132b1565b9050919050565b7f5072696365206d69736d61746368000000000000000000000000000000000000600082015250565b600061332a600e836128dd565b9150613335826132f4565b602082019050919050565b600060208201905081810360008301526133598161331d565b9050919050565b7f4e487b7100000000000000000000000000000000000000000000000000000000600052601160045260246000fd5b600061339a8261289e565b91506133a58361289e565b92508282026133b38161289e565b915082820484148315176133ca576133c9613360565b5b5092915050565b7f4e487b7100000000000000000000000000000000000000000000000000000000600052601260045260246000fd5b600061340b8261289e565b91506134168361289e565b925082613426576134256133d1565b5b828204905092915050565b600061343c8261289e565b91506134478361289e565b925082820190508082111561345f5761345e613360565b5b92915050565b7f496e636f7272656374207061796d656e7420616d6f756e740000000000000000600082015250565b600061349b6018836128dd565b91506134a682613465565b602082019050919050565b600060208201905081810360008301526134ca8161348e565b9050919050565b60006134dc8261289e565b91506134e78361289e565b92508282039050818111156134ff576134fe613360565b5b92915050565b600081905092915050565b50565b6000613520600083613505565b915061352b82613510565b600082019050919050565b600061354182613513565b9150819050919050565b7f5061796d656e7420746f2073656c6c6572206661696c65640000000000000000600082015250565b60006135816018836128dd565b915061358c8261354b565b602082019050919050565b600060208201905081810360008301526135b081613574565b9050919050565b60006060820190506135cc60008301866128a8565b6135d960208301856128a8565b6135e660408301846128a8565b949350505050565b600082825260208201905092915050565b600080fd5b82818337505050565b600061361983856135ee565b93507f07ffffffffffffffffffffffffffffffffffffffffffffffffffffffffffffff83111561364c5761364b6135ff565b5b60208302925061365d838584613604565b82840190509392505050565b6000604082019050818103600083015261368481858761360d565b905061369360208301846128a8565b949350505050565b7f446576696365206e6f7420726567697374657265640000000000000000000000600082015250565b60006136d16015836128dd565b91506136dc8261369b565b602082019050919050565b60006020820190508181036000830152613700816136c4565b9050919050565b7f456e657267792070726f6475636564206d75737420626520677265617465722060008201527f7468616e20300000000000000000000000000000000000000000000000000000602082015250565b60006137636026836128dd565b915061376e82613707565b604082019050919050565b6000602082019050818103600083015261379281613756565b9050919050565b7f4461746120616c7265616479206c6f6767656420666f7220746869732074696d60008201527f657374616d7020616e6420437265646974732068617665206265656e2065617260208201527f6e65640000000000000000000000000000000000000000000000000000000000604082015250565b600061381b6043836128dd565b915061382682613799565b606082019050919050565b6000602082019050818103600083015261384a8161380e565b9050919050565b600060408201905061386660008301856128a8565b61387360208301846128a8565b9392505050565b7f50726963652070657220746f6b656e2063616e2774206265206c65737320746860008201527f616e2074686520666c6f6f722070726f6365206f6620746865206d61726b6574602082015250565b60006138d66040836128dd565b91506138e18261387a565b604082019050919050565b60006020820190508181036000830152613905816138c9565b9050919050565b7f496e73756666696369656e742062616c616e6365000000000000000000000000600082015250565b60006139426014836128dd565b915061394d8261390c565b602082019050919050565b6000602082019050818103600083015261397181613935565b9050919050565b7f436f6e7472616374206e6f7420617070726f76656420746f207370656e64207360008201527f656c6c6572277320746f6b656e73000000000000000000000000000000000000602082015250565b60006139d4602e836128dd565b91506139df82613978565b604082019050919050565b60006020820190508181036000830152613a03816139c7565b9050919050565b7f616d6f756e74206d7573742062652067726561746572207468616e207a65726f600082015250565b6000613a406020836128dd565b9150613a4b82613a0a565b602082019050919050565b60006020820190508181036000830152613a6f81613a33565b9050919050565b7f4e6f7420456e6f7567682043435420696e206163636f756e7420746f2055746960008201527f6c697a652f436c61696d20000000000000000000000000000000000000000000602082015250565b6000613ad2602b836128dd565b9150613add82613a76565b604082019050919050565b60006020820190508181036000830152613b0181613ac5565b9050919050565b7f4e6f7420656e6f75676820746f6b656e7320696e2073656c6c6572732061636360008201527f6f756e7420746f2066756c66696c6c20746865206f7264657200000000000000602082015250565b6000613b646039836128dd565b9150613b6f82613b08565b604082019050919050565b60006020820190508181036000830152613b9381613b57565b9050919050565b7f5061796d656e74207472616e7366657220746f2073656c6c6572206661696c6560008201527f6400000000000000000000000000000000000000000000000000000000000000602082015250565b6000613bf66021836128dd565b9150613c0182613b9a565b604082019050919050565b60006020820190508181036000830152613c2581613be9565b9050919050565b7f4e6f20736d617274206d65746572206461746120666f7220746869732074696d60008201527f657374616d700000000000000000000000000000000000000000000000000000602082015250565b6000613c886026836128dd565b9150613c9382613c2c565b604082019050919050565b60006020820190508181036000830152613cb781613c7b565b9050919050565b7f436c61696d2065786365656473207265636f7264656420656e65726779000000600082015250565b6000613cf4601d836128dd565b9150613cff82613cbe565b602082019050919050565b60006020820190508181036000830152613d2381613ce7565b9050919050565b7f456e657267792070726f647563656420697320696e73756666696369656e742060008201527f666f7220612073696e676c652063726564697400000000000000000000000000602082015250565b6000613d866033836128dd565b9150613d9182613d2a565b604082019050919050565b60006020820190508181036000830152613db581613d79565b9050919050565b6000606082019050613dd16000830186612da8565b613dde60208301856128a8565b613deb60408301846128a8565b94935050505056fea26469706673582212202f42ea2caad52f9895262db33a1540582cf2f0269e7af9d39a417cdd8687ead964736f6c634300081c0033","opcodes":"PUSH1 0x80 PUSH1 0x40 MSTORE PUSH1 0x64 PUSH1 0x7 SSTORE PUSH20 0xAFA610B923E7CF8DD4F0E929B5F0CD91C1A4D9E PUSH1 0x8 PUSH1 0x0 PUSH2 0x100 EXP DUP2 SLOAD DUP2 PUSH20 0xFFFFFFFFFFFFFFFFFFFFFFFFFFFFFFFFFFFFFFFF MUL NOT AND SWAP1 DUP4 PUSH20 0xFFFFFFFFFFFFFFFFFFFFFFFFFFFFFFFFFFFFFFFF AND MUL OR SWAP1 SSTORE POP PUSH3 0x989680 PUSH1 0x9 SSTORE CALLVALUE DUP1 ISZERO PUSH2 0x71 JUMPI PUSH1 0x0 DUP1 REVERT JUMPDEST POP CALLER PUSH1 0x40 MLOAD DUP1 PUSH1 0x40 ADD PUSH1 0x40 MSTORE DUP1 PUSH1 0x13 DUP2 MSTORE PUSH1 0x20 ADD PUSH32 0x436172626F6E2043726564697420546F6B656E00000000000000000000000000 DUP2 MSTORE POP PUSH1 0x40 MLOAD DUP1 PUSH1 0x40 ADD PUSH1 0x40 MSTORE DUP1 PUSH1 0x3 DUP2 MSTORE PUSH1 0x20 ADD PUSH32 0x4343540000000000000000000000000000000000000000000000000000000000 DUP2 MSTORE POP DUP2 PUSH1 0x3 SWAP1 DUP2 PUSH2 0xEE SWAP2 SWAP1 PUSH2 0x4A6 JUMP JUMPDEST POP DUP1 PUSH1 0x4 SWAP1 DUP2 PUSH2 0xFE SWAP2 SWAP1 PUSH2 0x4A6 JUMP JUMPDEST POP POP POP PUSH1 0x0 PUSH20 0xFFFFFFFFFFFFFFFFFFFFFFFFFFFFFFFFFFFFFFFF AND DUP2 PUSH20 0xFFFFFFFFFFFFFFFFFFFFFFFFFFFFFFFFFFFFFFFF AND SUB PUSH2 0x173 JUMPI PUSH1 0x0 PUSH1 0x40 MLOAD PUSH32 0x1E4FBDF700000000000000000000000000000000000000000000000000000000 DUP2 MSTORE PUSH1 0x4 ADD PUSH2 0x16A SWAP2 SWAP1 PUSH2 0x5B9 JUMP JUMPDEST PUSH1 0x40 MLOAD DUP1 SWAP2 SUB SWAP1 REVERT JUMPDEST PUSH2 0x182 DUP2 PUSH2 0x190 PUSH1 0x20 SHL PUSH1 0x20 SHR JUMP JUMPDEST POP PUSH1 0x1 PUSH1 0x6 DUP2 SWAP1 SSTORE POP PUSH2 0x5D4 JUMP JUMPDEST PUSH1 0x0 PUSH1 0x5 PUSH1 0x0 SWAP1 SLOAD SWAP1 PUSH2 0x100 EXP SWAP1 DIV PUSH20 0xFFFFFFFFFFFFFFFFFFFFFFFFFFFFFFFFFFFFFFFF AND SWAP1 POP DUP2 PUSH1 0x5 PUSH1 0x0 PUSH2 0x100 EXP DUP2 SLOAD DUP2 PUSH20 0xFFFFFFFFFFFFFFFFFFFFFFFFFFFFFFFFFFFFFFFF MUL NOT AND SWAP1 DUP4 PUSH20 0xFFFFFFFFFFFFFFFFFFFFFFFFFFFFFFFFFFFFFFFF AND MUL OR SWAP1 SSTORE POP DUP2 PUSH20 0xFFFFFFFFFFFFFFFFFFFFFFFFFFFFFFFFFFFFFFFF AND DUP2 PUSH20 0xFFFFFFFFFFFFFFFFFFFFFFFFFFFFFFFFFFFFFFFF AND PUSH32 0x8BE0079C531659141344CD1FD0A4F28419497F9722A3DAAFE3B4186F6B6457E0 PUSH1 0x40 MLOAD PUSH1 0x40 MLOAD DUP1 SWAP2 SUB SWAP1 LOG3 POP POP JUMP JUMPDEST PUSH1 0x0 DUP2 MLOAD SWAP1 POP SWAP2 SWAP1 POP JUMP JUMPDEST PUSH32 0x4E487B7100000000000000000000000000000000000000000000000000000000 PUSH1 0x0 MSTORE PUSH1 0x41 PUSH1 0x4 MSTORE PUSH1 0x24 PUSH1 0x0 REVERT JUMPDEST PUSH32 0x4E487B7100000000000000000000000000000000000000000000000000000000 PUSH1 0x0 MSTORE PUSH1 0x22 PUSH1 0x4 MSTORE PUSH1 0x24 PUSH1 0x0 REVERT JUMPDEST PUSH1 0x0 PUSH1 0x2 DUP3 DIV SWAP1 POP PUSH1 0x1 DUP3 AND DUP1 PUSH2 0x2D7 JUMPI PUSH1 0x7F DUP3 AND SWAP2 POP JUMPDEST PUSH1 0x20 DUP3 LT DUP2 SUB PUSH2 0x2EA JUMPI PUSH2 0x2E9 PUSH2 0x290 JUMP JUMPDEST JUMPDEST POP SWAP2 SWAP1 POP JUMP JUMPDEST PUSH1 0x0 DUP2 SWAP1 POP DUP2 PUSH1 0x0 MSTORE PUSH1 0x20 PUSH1 0x0 KECCAK256 SWAP1 POP SWAP2 SWAP1 POP JUMP JUMPDEST PUSH1 0x0 PUSH1 0x20 PUSH1 0x1F DUP4 ADD DIV SWAP1 POP SWAP2 SWAP1 POP JUMP JUMPDEST PUSH1 0x0 DUP3 DUP3 SHL SWAP1 POP SWAP3 SWAP2 POP POP JUMP JUMPDEST PUSH1 0x0 PUSH1 0x8 DUP4 MUL PUSH2 0x352 PUSH32 0xFFFFFFFFFFFFFFFFFFFFFFFFFFFFFFFFFFFFFFFFFFFFFFFFFFFFFFFFFFFFFFFF DUP3 PUSH2 0x315 JUMP JUMPDEST PUSH2 0x35C DUP7 DUP4 PUSH2 0x315 JUMP JUMPDEST SWAP6 POP DUP1 NOT DUP5 AND SWAP4 POP DUP1 DUP7 AND DUP5 OR SWAP3 POP POP POP SWAP4 SWAP3 POP POP POP JUMP JUMPDEST PUSH1 0x0 DUP2 SWAP1 POP SWAP2 SWAP1 POP JUMP JUMPDEST PUSH1 0x0 DUP2 SWAP1 POP SWAP2 SWAP1 POP JUMP JUMPDEST PUSH1 0x0 PUSH2 0x3A3 PUSH2 0x39E PUSH2 0x399 DUP5 PUSH2 0x374 JUMP JUMPDEST PUSH2 0x37E JUMP JUMPDEST PUSH2 0x374 JUMP JUMPDEST SWAP1 POP SWAP2 SWAP1 POP JUMP JUMPDEST PUSH1 0x0 DUP2 SWAP1 POP SWAP2 SWAP1 POP JUMP JUMPDEST PUSH2 0x3BD DUP4 PUSH2 0x388 JUMP JUMPDEST PUSH2 0x3D1 PUSH2 0x3C9 DUP3 PUSH2 0x3AA JUMP JUMPDEST DUP5 DUP5 SLOAD PUSH2 0x322 JUMP JUMPDEST DUP3 SSTORE POP POP POP POP JUMP JUMPDEST PUSH1 0x0 SWAP1 JUMP JUMPDEST PUSH2 0x3E6 PUSH2 0x3D9 JUMP JUMPDEST PUSH2 0x3F1 DUP2 DUP5 DUP5 PUSH2 0x3B4 JUMP JUMPDEST POP POP POP JUMP JUMPDEST JUMPDEST DUP2 DUP2 LT ISZERO PUSH2 0x415 JUMPI PUSH2 0x40A PUSH1 0x0 DUP3 PUSH2 0x3DE JUMP JUMPDEST PUSH1 0x1 DUP2 ADD SWAP1 POP PUSH2 0x3F7 JUMP JUMPDEST POP POP JUMP JUMPDEST PUSH1 0x1F DUP3 GT ISZERO PUSH2 0x45A JUMPI PUSH2 0x42B DUP2 PUSH2 0x2F0 JUMP JUMPDEST PUSH2 0x434 DUP5 PUSH2 0x305 JUMP JUMPDEST DUP2 ADD PUSH1 0x20 DUP6 LT ISZERO PUSH2 0x443 JUMPI DUP2 SWAP1 POP JUMPDEST PUSH2 0x457 PUSH2 0x44F DUP6 PUSH2 0x305 JUMP JUMPDEST DUP4 ADD DUP3 PUSH2 0x3F6 JUMP JUMPDEST POP POP JUMPDEST POP POP POP JUMP JUMPDEST PUSH1 0x0 DUP3 DUP3 SHR SWAP1 POP SWAP3 SWAP2 POP POP JUMP JUMPDEST PUSH1 0x0 PUSH2 0x47D PUSH1 0x0 NOT DUP5 PUSH1 0x8 MUL PUSH2 0x45F JUMP JUMPDEST NOT DUP1 DUP4 AND SWAP2 POP POP SWAP3 SWAP2 POP POP JUMP JUMPDEST PUSH1 0x0 PUSH2 0x496 DUP4 DUP4 PUSH2 0x46C JUMP JUMPDEST SWAP2 POP DUP3 PUSH1 0x2 MUL DUP3 OR SWAP1 POP SWAP3 SWAP2 POP POP JUMP JUMPDEST PUSH2 0x4AF DUP3 PUSH2 0x256 JUMP JUMPDEST PUSH8 0xFFFFFFFFFFFFFFFF DUP2 GT ISZERO PUSH2 0x4C8 JUMPI PUSH2 0x4C7 PUSH2 0x261 JUMP JUMPDEST JUMPDEST PUSH2 0x4D2 DUP3 SLOAD PUSH2 0x2BF JUMP JUMPDEST PUSH2 0x4DD DUP3 DUP3 DUP6 PUSH2 0x419 JUMP JUMPDEST PUSH1 0x0 PUSH1 0x20 SWAP1 POP PUSH1 0x1F DUP4 GT PUSH1 0x1 DUP2 EQ PUSH2 0x510 JUMPI PUSH1 0x0 DUP5 ISZERO PUSH2 0x4FE JUMPI DUP3 DUP8 ADD MLOAD SWAP1 POP JUMPDEST PUSH2 0x508 DUP6 DUP3 PUSH2 0x48A JUMP JUMPDEST DUP7 SSTORE POP PUSH2 0x570 JUMP JUMPDEST PUSH1 0x1F NOT DUP5 AND PUSH2 0x51E DUP7 PUSH2 0x2F0 JUMP JUMPDEST PUSH1 0x0 JUMPDEST DUP3 DUP2 LT ISZERO PUSH2 0x546 JUMPI DUP5 DUP10 ADD MLOAD DUP3 SSTORE PUSH1 0x1 DUP3 ADD SWAP2 POP PUSH1 0x20 DUP6 ADD SWAP5 POP PUSH1 0x20 DUP2 ADD SWAP1 POP PUSH2 0x521 JUMP JUMPDEST DUP7 DUP4 LT ISZERO PUSH2 0x563 JUMPI DUP5 DUP10 ADD MLOAD PUSH2 0x55F PUSH1 0x1F DUP10 AND DUP3 PUSH2 0x46C JUMP JUMPDEST DUP4 SSTORE POP JUMPDEST PUSH1 0x1 PUSH1 0x2 DUP9 MUL ADD DUP9 SSTORE POP POP POP JUMPDEST POP POP POP POP POP POP JUMP JUMPDEST PUSH1 0x0 PUSH20 0xFFFFFFFFFFFFFFFFFFFFFFFFFFFFFFFFFFFFFFFF DUP3 AND SWAP1 POP SWAP2 SWAP1 POP JUMP JUMPDEST PUSH1 0x0 PUSH2 0x5A3 DUP3 PUSH2 0x578 JUMP JUMPDEST SWAP1 POP SWAP2 SWAP1 POP JUMP JUMPDEST PUSH2 0x5B3 DUP2 PUSH2 0x598 JUMP JUMPDEST DUP3 MSTORE POP POP JUMP JUMPDEST PUSH1 0x0 PUSH1 0x20 DUP3 ADD SWAP1 POP PUSH2 0x5CE PUSH1 0x0 DUP4 ADD DUP5 PUSH2 0x5AA JUMP JUMPDEST SWAP3 SWAP2 POP POP JUMP JUMPDEST PUSH2 0x3E29 DUP1 PUSH2 0x5E3 PUSH1 0x0 CODECOPY PUSH1 0x0 RETURN INVALID PUSH1 0x80 PUSH1 0x40 MSTORE PUSH1 0x4 CALLDATASIZE LT PUSH2 0x1D8 JUMPI PUSH1 0x0 CALLDATALOAD PUSH1 0xE0 SHR DUP1 PUSH4 0x715018A6 GT PUSH2 0x102 JUMPI DUP1 PUSH4 0xB8F8BBDF GT PUSH2 0x95 JUMPI DUP1 PUSH4 0xDD62ED3E GT PUSH2 0x64 JUMPI DUP1 PUSH4 0xDD62ED3E EQ PUSH2 0x6DF JUMPI DUP1 PUSH4 0xEC7D3640 EQ PUSH2 0x71C JUMPI DUP1 PUSH4 0xF2FDE38B EQ PUSH2 0x759 JUMPI DUP1 PUSH4 0xF7062C1B EQ PUSH2 0x782 JUMPI PUSH2 0x1D8 JUMP JUMPDEST DUP1 PUSH4 0xB8F8BBDF EQ PUSH2 0x60A JUMPI DUP1 PUSH4 0xC316787C EQ PUSH2 0x647 JUMPI DUP1 PUSH4 0xD5BB554F EQ PUSH2 0x684 JUMPI DUP1 PUSH4 0xD9B60D97 EQ PUSH2 0x6AF JUMPI PUSH2 0x1D8 JUMP JUMPDEST DUP1 PUSH4 0x95D89B41 GT PUSH2 0xD1 JUMPI DUP1 PUSH4 0x95D89B41 EQ PUSH2 0x53C JUMPI DUP1 PUSH4 0xA4406BCD EQ PUSH2 0x567 JUMPI DUP1 PUSH4 0xA77FCF5B EQ PUSH2 0x5A4 JUMPI DUP1 PUSH4 0xA9059CBB EQ PUSH2 0x5CD JUMPI PUSH2 0x1D8 JUMP JUMPDEST DUP1 PUSH4 0x715018A6 EQ PUSH2 0x4A6 JUMPI DUP1 PUSH4 0x791F2F11 EQ PUSH2 0x4BD JUMPI DUP1 PUSH4 0x862EB703 EQ PUSH2 0x4E8 JUMPI DUP1 PUSH4 0x8DA5CB5B EQ PUSH2 0x511 JUMPI PUSH2 0x1D8 JUMP JUMPDEST DUP1 PUSH4 0x2166C70E GT PUSH2 0x17A JUMPI DUP1 PUSH4 0x3E83EB09 GT PUSH2 0x149 JUMPI DUP1 PUSH4 0x3E83EB09 EQ PUSH2 0x3D7 JUMPI DUP1 PUSH4 0x4A8393F3 EQ PUSH2 0x400 JUMPI DUP1 PUSH4 0x6DC7B9A5 EQ PUSH2 0x440 JUMPI DUP1 PUSH4 0x70A08231 EQ PUSH2 0x469 JUMPI PUSH2 0x1D8 JUMP JUMPDEST DUP1 PUSH4 0x2166C70E EQ PUSH2 0x316 JUMPI DUP1 PUSH4 0x2375FCE0 EQ PUSH2 0x332 JUMPI DUP1 PUSH4 0x23B872DD EQ PUSH2 0x36F JUMPI DUP1 PUSH4 0x313CE567 EQ PUSH2 0x3AC JUMPI PUSH2 0x1D8 JUMP JUMPDEST DUP1 PUSH4 0xCA67E5A GT PUSH2 0x1B6 JUMPI DUP1 PUSH4 0xCA67E5A EQ PUSH2 0x270 JUMPI DUP1 PUSH4 0xEDC632E EQ PUSH2 0x299 JUMPI DUP1 PUSH4 0x18160DDD EQ PUSH2 0x2C2 JUMPI DUP1 PUSH4 0x1E2C2662 EQ PUSH2 0x2ED JUMPI PUSH2 0x1D8 JUMP JUMPDEST DUP1 PUSH4 0x6377E78 EQ PUSH2 0x1DD JUMPI DUP1 PUSH4 0x6FDDE03 EQ PUSH2 0x208 JUMPI DUP1 PUSH4 0x95EA7B3 EQ PUSH2 0x233 JUMPI JUMPDEST PUSH1 0x0 DUP1 REVERT JUMPDEST CALLVALUE DUP1 ISZERO PUSH2 0x1E9 JUMPI PUSH1 0x0 DUP1 REVERT JUMPDEST POP PUSH2 0x1F2 PUSH2 0x7AB JUMP JUMPDEST PUSH1 0x40 MLOAD PUSH2 0x1FF SWAP2 SWAP1 PUSH2 0x28B7 JUMP JUMPDEST PUSH1 0x40 MLOAD DUP1 SWAP2 SUB SWAP1 RETURN JUMPDEST CALLVALUE DUP1 ISZERO PUSH2 0x214 JUMPI PUSH1 0x0 DUP1 REVERT JUMPDEST POP PUSH2 0x21D PUSH2 0x7B1 JUMP JUMPDEST PUSH1 0x40 MLOAD PUSH2 0x22A SWAP2 SWAP1 PUSH2 0x2962 JUMP JUMPDEST PUSH1 0x40 MLOAD DUP1 SWAP2 SUB SWAP1 RETURN JUMPDEST CALLVALUE DUP1 ISZERO PUSH2 0x23F JUMPI PUSH1 0x0 DUP1 REVERT JUMPDEST POP PUSH2 0x25A PUSH1 0x4 DUP1 CALLDATASIZE SUB DUP2 ADD SWAP1 PUSH2 0x255 SWAP2 SWAP1 PUSH2 0x2A18 JUMP JUMPDEST PUSH2 0x843 JUMP JUMPDEST PUSH1 0x40 MLOAD PUSH2 0x267 SWAP2 SWAP1 PUSH2 0x2A73 JUMP JUMPDEST PUSH1 0x40 MLOAD DUP1 SWAP2 SUB SWAP1 RETURN JUMPDEST CALLVALUE DUP1 ISZERO PUSH2 0x27C JUMPI PUSH1 0x0 DUP1 REVERT JUMPDEST POP PUSH2 0x297 PUSH1 0x4 DUP1 CALLDATASIZE SUB DUP2 ADD SWAP1 PUSH2 0x292 SWAP2 SWAP1 PUSH2 0x2A18 JUMP JUMPDEST PUSH2 0x866 JUMP JUMPDEST STOP JUMPDEST CALLVALUE DUP1 ISZERO PUSH2 0x2A5 JUMPI PUSH1 0x0 DUP1 REVERT JUMPDEST POP PUSH2 0x2C0 PUSH1 0x4 DUP1 CALLDATASIZE SUB DUP2 ADD SWAP1 PUSH2 0x2BB SWAP2 SWAP1 PUSH2 0x2A8E JUMP JUMPDEST PUSH2 0x939 JUMP JUMPDEST STOP JUMPDEST CALLVALUE DUP1 ISZERO PUSH2 0x2CE JUMPI PUSH1 0x0 DUP1 REVERT JUMPDEST POP PUSH2 0x2D7 PUSH2 0x94B JUMP JUMPDEST PUSH1 0x40 MLOAD PUSH2 0x2E4 SWAP2 SWAP1 PUSH2 0x28B7 JUMP JUMPDEST PUSH1 0x40 MLOAD DUP1 SWAP2 SUB SWAP1 RETURN JUMPDEST CALLVALUE DUP1 ISZERO PUSH2 0x2F9 JUMPI PUSH1 0x0 DUP1 REVERT JUMPDEST POP PUSH2 0x314 PUSH1 0x4 DUP1 CALLDATASIZE SUB DUP2 ADD SWAP1 PUSH2 0x30F SWAP2 SWAP1 PUSH2 0x2B20 JUMP JUMPDEST PUSH2 0x955 JUMP JUMPDEST STOP JUMPDEST PUSH2 0x330 PUSH1 0x4 DUP1 CALLDATASIZE SUB DUP2 ADD SWAP1 PUSH2 0x32B SWAP2 SWAP1 PUSH2 0x2BEA JUMP JUMPDEST PUSH2 0xA05 JUMP JUMPDEST STOP JUMPDEST CALLVALUE DUP1 ISZERO PUSH2 0x33E JUMPI PUSH1 0x0 DUP1 REVERT JUMPDEST POP PUSH2 0x359 PUSH1 0x4 DUP1 CALLDATASIZE SUB DUP2 ADD SWAP1 PUSH2 0x354 SWAP2 SWAP1 PUSH2 0x2C9E JUMP JUMPDEST PUSH2 0x1069 JUMP JUMPDEST PUSH1 0x40 MLOAD PUSH2 0x366 SWAP2 SWAP1 PUSH2 0x2A73 JUMP JUMPDEST PUSH1 0x40 MLOAD DUP1 SWAP2 SUB SWAP1 RETURN JUMPDEST CALLVALUE DUP1 ISZERO PUSH2 0x37B JUMPI PUSH1 0x0 DUP1 REVERT JUMPDEST POP PUSH2 0x396 PUSH1 0x4 DUP1 CALLDATASIZE SUB DUP2 ADD SWAP1 PUSH2 0x391 SWAP2 SWAP1 PUSH2 0x2CF1 JUMP JUMPDEST PUSH2 0x1294 JUMP JUMPDEST PUSH1 0x40 MLOAD PUSH2 0x3A3 SWAP2 SWAP1 PUSH2 0x2A73 JUMP JUMPDEST PUSH1 0x40 MLOAD DUP1 SWAP2 SUB SWAP1 RETURN JUMPDEST CALLVALUE DUP1 ISZERO PUSH2 0x3B8 JUMPI PUSH1 0x0 DUP1 REVERT JUMPDEST POP PUSH2 0x3C1 PUSH2 0x12C3 JUMP JUMPDEST PUSH1 0x40 MLOAD PUSH2 0x3CE SWAP2 SWAP1 PUSH2 0x2D60 JUMP JUMPDEST PUSH1 0x40 MLOAD DUP1 SWAP2 SUB SWAP1 RETURN JUMPDEST CALLVALUE DUP1 ISZERO PUSH2 0x3E3 JUMPI PUSH1 0x0 DUP1 REVERT JUMPDEST POP PUSH2 0x3FE PUSH1 0x4 DUP1 CALLDATASIZE SUB DUP2 ADD SWAP1 PUSH2 0x3F9 SWAP2 SWAP1 PUSH2 0x2D7B JUMP JUMPDEST PUSH2 0x12CC JUMP JUMPDEST STOP JUMPDEST CALLVALUE DUP1 ISZERO PUSH2 0x40C JUMPI PUSH1 0x0 DUP1 REVERT JUMPDEST POP PUSH2 0x427 PUSH1 0x4 DUP1 CALLDATASIZE SUB DUP2 ADD SWAP1 PUSH2 0x422 SWAP2 SWAP1 PUSH2 0x2A8E JUMP JUMPDEST PUSH2 0x1318 JUMP JUMPDEST PUSH1 0x40 MLOAD PUSH2 0x437 SWAP5 SWAP4 SWAP3 SWAP2 SWAP1 PUSH2 0x2DB7 JUMP JUMPDEST PUSH1 0x40 MLOAD DUP1 SWAP2 SUB SWAP1 RETURN JUMPDEST CALLVALUE DUP1 ISZERO PUSH2 0x44C JUMPI PUSH1 0x0 DUP1 REVERT JUMPDEST POP PUSH2 0x467 PUSH1 0x4 DUP1 CALLDATASIZE SUB DUP2 ADD SWAP1 PUSH2 0x462 SWAP2 SWAP1 PUSH2 0x2D7B JUMP JUMPDEST PUSH2 0x1385 JUMP JUMPDEST STOP JUMPDEST CALLVALUE DUP1 ISZERO PUSH2 0x475 JUMPI PUSH1 0x0 DUP1 REVERT JUMPDEST POP PUSH2 0x490 PUSH1 0x4 DUP1 CALLDATASIZE SUB DUP2 ADD SWAP1 PUSH2 0x48B SWAP2 SWAP1 PUSH2 0x2D7B JUMP JUMPDEST PUSH2 0x141F JUMP JUMPDEST PUSH1 0x40 MLOAD PUSH2 0x49D SWAP2 SWAP1 PUSH2 0x28B7 JUMP JUMPDEST PUSH1 0x40 MLOAD DUP1 SWAP2 SUB SWAP1 RETURN JUMPDEST CALLVALUE DUP1 ISZERO PUSH2 0x4B2 JUMPI PUSH1 0x0 DUP1 REVERT JUMPDEST POP PUSH2 0x4BB PUSH2 0x1467 JUMP JUMPDEST STOP JUMPDEST CALLVALUE DUP1 ISZERO PUSH2 0x4C9 JUMPI PUSH1 0x0 DUP1 REVERT JUMPDEST POP PUSH2 0x4D2 PUSH2 0x147B JUMP JUMPDEST PUSH1 0x40 MLOAD PUSH2 0x4DF SWAP2 SWAP1 PUSH2 0x28B7 JUMP JUMPDEST PUSH1 0x40 MLOAD DUP1 SWAP2 SUB SWAP1 RETURN JUMPDEST CALLVALUE DUP1 ISZERO PUSH2 0x4F4 JUMPI PUSH1 0x0 DUP1 REVERT JUMPDEST POP PUSH2 0x50F PUSH1 0x4 DUP1 CALLDATASIZE SUB DUP2 ADD SWAP1 PUSH2 0x50A SWAP2 SWAP1 PUSH2 0x2A8E JUMP JUMPDEST PUSH2 0x1481 JUMP JUMPDEST STOP JUMPDEST CALLVALUE DUP1 ISZERO PUSH2 0x51D JUMPI PUSH1 0x0 DUP1 REVERT JUMPDEST POP PUSH2 0x526 PUSH2 0x1493 JUMP JUMPDEST PUSH1 0x40 MLOAD PUSH2 0x533 SWAP2 SWAP1 PUSH2 0x2DFC JUMP JUMPDEST PUSH1 0x40 MLOAD DUP1 SWAP2 SUB SWAP1 RETURN JUMPDEST CALLVALUE DUP1 ISZERO PUSH2 0x548 JUMPI PUSH1 0x0 DUP1 REVERT JUMPDEST POP PUSH2 0x551 PUSH2 0x14BD JUMP JUMPDEST PUSH1 0x40 MLOAD PUSH2 0x55E SWAP2 SWAP1 PUSH2 0x2962 JUMP JUMPDEST PUSH1 0x40 MLOAD DUP1 SWAP2 SUB SWAP1 RETURN JUMPDEST CALLVALUE DUP1 ISZERO PUSH2 0x573 JUMPI PUSH1 0x0 DUP1 REVERT JUMPDEST POP PUSH2 0x58E PUSH1 0x4 DUP1 CALLDATASIZE SUB DUP2 ADD SWAP1 PUSH2 0x589 SWAP2 SWAP1 PUSH2 0x2E17 JUMP JUMPDEST PUSH2 0x154F JUMP JUMPDEST PUSH1 0x40 MLOAD PUSH2 0x59B SWAP2 SWAP1 PUSH2 0x28B7 JUMP JUMPDEST PUSH1 0x40 MLOAD DUP1 SWAP2 SUB SWAP1 RETURN JUMPDEST CALLVALUE DUP1 ISZERO PUSH2 0x5B0 JUMPI PUSH1 0x0 DUP1 REVERT JUMPDEST POP PUSH2 0x5CB PUSH1 0x4 DUP1 CALLDATASIZE SUB DUP2 ADD SWAP1 PUSH2 0x5C6 SWAP2 SWAP1 PUSH2 0x2A8E JUMP JUMPDEST PUSH2 0x178C JUMP JUMPDEST STOP JUMPDEST CALLVALUE DUP1 ISZERO PUSH2 0x5D9 JUMPI PUSH1 0x0 DUP1 REVERT JUMPDEST POP PUSH2 0x5F4 PUSH1 0x4 DUP1 CALLDATASIZE SUB DUP2 ADD SWAP1 PUSH2 0x5EF SWAP2 SWAP1 PUSH2 0x2A18 JUMP JUMPDEST PUSH2 0x1837 JUMP JUMPDEST PUSH1 0x40 MLOAD PUSH2 0x601 SWAP2 SWAP1 PUSH2 0x2A73 JUMP JUMPDEST PUSH1 0x40 MLOAD DUP1 SWAP2 SUB SWAP1 RETURN JUMPDEST CALLVALUE DUP1 ISZERO PUSH2 0x616 JUMPI PUSH1 0x0 DUP1 REVERT JUMPDEST POP PUSH2 0x631 PUSH1 0x4 DUP1 CALLDATASIZE SUB DUP2 ADD SWAP1 PUSH2 0x62C SWAP2 SWAP1 PUSH2 0x2D7B JUMP JUMPDEST PUSH2 0x185A JUMP JUMPDEST PUSH1 0x40 MLOAD PUSH2 0x63E SWAP2 SWAP1 PUSH2 0x2A73 JUMP JUMPDEST PUSH1 0x40 MLOAD DUP1 SWAP2 SUB SWAP1 RETURN JUMPDEST CALLVALUE DUP1 ISZERO PUSH2 0x653 JUMPI PUSH1 0x0 DUP1 REVERT JUMPDEST POP PUSH2 0x66E PUSH1 0x4 DUP1 CALLDATASIZE SUB DUP2 ADD SWAP1 PUSH2 0x669 SWAP2 SWAP1 PUSH2 0x2A18 JUMP JUMPDEST PUSH2 0x187A JUMP JUMPDEST PUSH1 0x40 MLOAD PUSH2 0x67B SWAP2 SWAP1 PUSH2 0x28B7 JUMP JUMPDEST PUSH1 0x40 MLOAD DUP1 SWAP2 SUB SWAP1 RETURN JUMPDEST CALLVALUE DUP1 ISZERO PUSH2 0x690 JUMPI PUSH1 0x0 DUP1 REVERT JUMPDEST POP PUSH2 0x699 PUSH2 0x189F JUMP JUMPDEST PUSH1 0x40 MLOAD PUSH2 0x6A6 SWAP2 SWAP1 PUSH2 0x2DFC JUMP JUMPDEST PUSH1 0x40 MLOAD DUP1 SWAP2 SUB SWAP1 RETURN JUMPDEST PUSH2 0x6C9 PUSH1 0x4 DUP1 CALLDATASIZE SUB DUP2 ADD SWAP1 PUSH2 0x6C4 SWAP2 SWAP1 PUSH2 0x2E17 JUMP JUMPDEST PUSH2 0x18C5 JUMP JUMPDEST PUSH1 0x40 MLOAD PUSH2 0x6D6 SWAP2 SWAP1 PUSH2 0x2A73 JUMP JUMPDEST PUSH1 0x40 MLOAD DUP1 SWAP2 SUB SWAP1 RETURN JUMPDEST CALLVALUE DUP1 ISZERO PUSH2 0x6EB JUMPI PUSH1 0x0 DUP1 REVERT JUMPDEST POP PUSH2 0x706 PUSH1 0x4 DUP1 CALLDATASIZE SUB DUP2 ADD SWAP1 PUSH2 0x701 SWAP2 SWAP1 PUSH2 0x2E57 JUMP JUMPDEST PUSH2 0x1C64 JUMP JUMPDEST PUSH1 0x40 MLOAD PUSH2 0x713 SWAP2 SWAP1 PUSH2 0x28B7 JUMP JUMPDEST PUSH1 0x40 MLOAD DUP1 SWAP2 SUB SWAP1 RETURN JUMPDEST CALLVALUE DUP1 ISZERO PUSH2 0x728 JUMPI PUSH1 0x0 DUP1 REVERT JUMPDEST POP PUSH2 0x743 PUSH1 0x4 DUP1 CALLDATASIZE SUB DUP2 ADD SWAP1 PUSH2 0x73E SWAP2 SWAP1 PUSH2 0x2E17 JUMP JUMPDEST PUSH2 0x1CEB JUMP JUMPDEST PUSH1 0x40 MLOAD PUSH2 0x750 SWAP2 SWAP1 PUSH2 0x28B7 JUMP JUMPDEST PUSH1 0x40 MLOAD DUP1 SWAP2 SUB SWAP1 RETURN JUMPDEST CALLVALUE DUP1 ISZERO PUSH2 0x765 JUMPI PUSH1 0x0 DUP1 REVERT JUMPDEST POP PUSH2 0x780 PUSH1 0x4 DUP1 CALLDATASIZE SUB DUP2 ADD SWAP1 PUSH2 0x77B SWAP2 SWAP1 PUSH2 0x2D7B JUMP JUMPDEST PUSH2 0x1F3E JUMP JUMPDEST STOP JUMPDEST CALLVALUE DUP1 ISZERO PUSH2 0x78E JUMPI PUSH1 0x0 DUP1 REVERT JUMPDEST POP PUSH2 0x7A9 PUSH1 0x4 DUP1 CALLDATASIZE SUB DUP2 ADD SWAP1 PUSH2 0x7A4 SWAP2 SWAP1 PUSH2 0x2D7B JUMP JUMPDEST PUSH2 0x1FC4 JUMP JUMPDEST STOP JUMPDEST PUSH1 0x9 SLOAD DUP2 JUMP JUMPDEST PUSH1 0x60 PUSH1 0x3 DUP1 SLOAD PUSH2 0x7C0 SWAP1 PUSH2 0x2EC6 JUMP JUMPDEST DUP1 PUSH1 0x1F ADD PUSH1 0x20 DUP1 SWAP2 DIV MUL PUSH1 0x20 ADD PUSH1 0x40 MLOAD SWAP1 DUP2 ADD PUSH1 0x40 MSTORE DUP1 SWAP3 SWAP2 SWAP1 DUP2 DUP2 MSTORE PUSH1 0x20 ADD DUP3 DUP1 SLOAD PUSH2 0x7EC SWAP1 PUSH2 0x2EC6 JUMP JUMPDEST DUP1 ISZERO PUSH2 0x839 JUMPI DUP1 PUSH1 0x1F LT PUSH2 0x80E JUMPI PUSH2 0x100 DUP1 DUP4 SLOAD DIV MUL DUP4 MSTORE SWAP2 PUSH1 0x20 ADD SWAP2 PUSH2 0x839 JUMP JUMPDEST DUP3 ADD SWAP2 SWAP1 PUSH1 0x0 MSTORE PUSH1 0x20 PUSH1 0x0 KECCAK256 SWAP1 JUMPDEST DUP2 SLOAD DUP2 MSTORE SWAP1 PUSH1 0x1 ADD SWAP1 PUSH1 0x20 ADD DUP1 DUP4 GT PUSH2 0x81C JUMPI DUP3 SWAP1 SUB PUSH1 0x1F AND DUP3 ADD SWAP2 JUMPDEST POP POP POP POP POP SWAP1 POP SWAP1 JUMP JUMPDEST PUSH1 0x0 DUP1 PUSH2 0x84E PUSH2 0x205E JUMP JUMPDEST SWAP1 POP PUSH2 0x85B DUP2 DUP6 DUP6 PUSH2 0x2066 JUMP JUMPDEST PUSH1 0x1 SWAP2 POP POP SWAP3 SWAP2 POP POP JUMP JUMPDEST PUSH2 0x86E PUSH2 0x2078 JUMP JUMPDEST PUSH1 0x0 PUSH20 0xFFFFFFFFFFFFFFFFFFFFFFFFFFFFFFFFFFFFFFFF AND DUP3 PUSH20 0xFFFFFFFFFFFFFFFFFFFFFFFFFFFFFFFFFFFFFFFF AND SUB PUSH2 0x8DD JUMPI PUSH1 0x40 MLOAD PUSH32 0x8C379A000000000000000000000000000000000000000000000000000000000 DUP2 MSTORE PUSH1 0x4 ADD PUSH2 0x8D4 SWAP1 PUSH2 0x2F43 JUMP JUMPDEST PUSH1 0x40 MLOAD DUP1 SWAP2 SUB SWAP1 REVERT JUMPDEST PUSH2 0x8E7 DUP3 DUP3 PUSH2 0x20FF JUMP JUMPDEST DUP2 PUSH20 0xFFFFFFFFFFFFFFFFFFFFFFFFFFFFFFFFFFFFFFFF AND PUSH32 0xCB7703684F2BC174FEBA81D016AA10AF41AAC81697E104478562989F0C178176 DUP3 PUSH1 0x40 MLOAD PUSH2 0x92D SWAP2 SWAP1 PUSH2 0x28B7 JUMP JUMPDEST PUSH1 0x40 MLOAD DUP1 SWAP2 SUB SWAP1 LOG2 POP POP JUMP JUMPDEST PUSH2 0x941 PUSH2 0x2078 JUMP JUMPDEST DUP1 PUSH1 0x9 DUP2 SWAP1 SSTORE POP POP JUMP JUMPDEST PUSH1 0x0 PUSH1 0x2 SLOAD SWAP1 POP SWAP1 JUMP JUMPDEST PUSH2 0x95D PUSH2 0x2078 JUMP JUMPDEST PUSH1 0x0 DUP3 DUP3 SWAP1 POP GT PUSH2 0x9A3 JUMPI PUSH1 0x40 MLOAD PUSH32 0x8C379A000000000000000000000000000000000000000000000000000000000 DUP2 MSTORE PUSH1 0x4 ADD PUSH2 0x99A SWAP1 PUSH2 0x2FAF JUMP JUMPDEST PUSH1 0x40 MLOAD DUP1 SWAP2 SUB SWAP1 REVERT JUMPDEST PUSH2 0x9AD DUP5 DUP5 PUSH2 0x2181 JUMP JUMPDEST DUP4 PUSH20 0xFFFFFFFFFFFFFFFFFFFFFFFFFFFFFFFFFFFFFFFF AND PUSH32 0x5351714DC577522AE9769C8D2FFB81BF26D30EE8F7DA174A2EBA4DE43663C37E DUP5 DUP5 DUP5 PUSH1 0x40 MLOAD PUSH2 0x9F7 SWAP4 SWAP3 SWAP2 SWAP1 PUSH2 0x300B JUMP JUMPDEST PUSH1 0x40 MLOAD DUP1 SWAP2 SUB SWAP1 LOG2 POP POP POP POP JUMP JUMPDEST PUSH2 0xA0D PUSH2 0x2203 JUMP JUMPDEST PUSH1 0x0 DUP7 DUP7 SWAP1 POP GT PUSH2 0xA53 JUMPI PUSH1 0x40 MLOAD PUSH32 0x8C379A000000000000000000000000000000000000000000000000000000000 DUP2 MSTORE PUSH1 0x4 ADD PUSH2 0xA4A SWAP1 PUSH2 0x3089 JUMP JUMPDEST PUSH1 0x40 MLOAD DUP1 SWAP2 SUB SWAP1 REVERT JUMPDEST DUP4 DUP4 SWAP1 POP DUP7 DUP7 SWAP1 POP EQ PUSH2 0xA9B JUMPI PUSH1 0x40 MLOAD PUSH32 0x8C379A000000000000000000000000000000000000000000000000000000000 DUP2 MSTORE PUSH1 0x4 ADD PUSH2 0xA92 SWAP1 PUSH2 0x30F5 JUMP JUMPDEST PUSH1 0x40 MLOAD DUP1 SWAP2 SUB SWAP1 REVERT JUMPDEST DUP2 DUP2 SWAP1 POP DUP7 DUP7 SWAP1 POP EQ PUSH2 0xAE3 JUMPI PUSH1 0x40 MLOAD PUSH32 0x8C379A000000000000000000000000000000000000000000000000000000000 DUP2 MSTORE PUSH1 0x4 ADD PUSH2 0xADA SWAP1 PUSH2 0x3161 JUMP JUMPDEST PUSH1 0x40 MLOAD DUP1 SWAP2 SUB SWAP1 REVERT JUMPDEST PUSH1 0x0 DUP1 DUP8 DUP8 SWAP1 POP SWAP1 POP PUSH1 0x0 JUMPDEST DUP2 DUP2 LT ISZERO PUSH2 0xCEC JUMPI PUSH1 0x0 DUP10 DUP10 DUP4 DUP2 DUP2 LT PUSH2 0xB0C JUMPI PUSH2 0xB0B PUSH2 0x3181 JUMP JUMPDEST JUMPDEST SWAP1 POP PUSH1 0x20 MUL ADD CALLDATALOAD SWAP1 POP PUSH1 0x0 DUP9 DUP9 DUP5 DUP2 DUP2 LT PUSH2 0xB2A JUMPI PUSH2 0xB29 PUSH2 0x3181 JUMP JUMPDEST JUMPDEST SWAP1 POP PUSH1 0x20 MUL ADD CALLDATALOAD SWAP1 POP PUSH1 0x0 DUP8 DUP8 DUP6 DUP2 DUP2 LT PUSH2 0xB48 JUMPI PUSH2 0xB47 PUSH2 0x3181 JUMP JUMPDEST JUMPDEST SWAP1 POP PUSH1 0x20 MUL ADD CALLDATALOAD SWAP1 POP PUSH1 0xC DUP1 SLOAD SWAP1 POP DUP4 LT PUSH2 0xB98 JUMPI PUSH1 0x40 MLOAD PUSH32 0x8C379A000000000000000000000000000000000000000000000000000000000 DUP2 MSTORE PUSH1 0x4 ADD PUSH2 0xB8F SWAP1 PUSH2 0x31FC JUMP JUMPDEST PUSH1 0x40 MLOAD DUP1 SWAP2 SUB SWAP1 REVERT JUMPDEST PUSH1 0x0 PUSH1 0xC DUP5 DUP2 SLOAD DUP2 LT PUSH2 0xBAE JUMPI PUSH2 0xBAD PUSH2 0x3181 JUMP JUMPDEST JUMPDEST SWAP1 PUSH1 0x0 MSTORE PUSH1 0x20 PUSH1 0x0 KECCAK256 SWAP1 PUSH1 0x4 MUL ADD SWAP1 POP DUP1 PUSH1 0x3 ADD PUSH1 0x0 SWAP1 SLOAD SWAP1 PUSH2 0x100 EXP SWAP1 DIV PUSH1 0xFF AND ISZERO PUSH2 0xC10 JUMPI PUSH1 0x40 MLOAD PUSH32 0x8C379A000000000000000000000000000000000000000000000000000000000 DUP2 MSTORE PUSH1 0x4 ADD PUSH2 0xC07 SWAP1 PUSH2 0x3268 JUMP JUMPDEST PUSH1 0x40 MLOAD DUP1 SWAP2 SUB SWAP1 REVERT JUMPDEST PUSH1 0x0 DUP4 GT DUP1 ISZERO PUSH2 0xC24 JUMPI POP DUP1 PUSH1 0x1 ADD SLOAD DUP4 GT ISZERO JUMPDEST PUSH2 0xC63 JUMPI PUSH1 0x40 MLOAD PUSH32 0x8C379A000000000000000000000000000000000000000000000000000000000 DUP2 MSTORE PUSH1 0x4 ADD PUSH2 0xC5A SWAP1 PUSH2 0x32D4 JUMP JUMPDEST PUSH1 0x40 MLOAD DUP1 SWAP2 SUB SWAP1 REVERT JUMPDEST DUP1 PUSH1 0x2 ADD SLOAD DUP3 EQ PUSH2 0xCA9 JUMPI PUSH1 0x40 MLOAD PUSH32 0x8C379A000000000000000000000000000000000000000000000000000000000 DUP2 MSTORE PUSH1 0x4 ADD PUSH2 0xCA0 SWAP1 PUSH2 0x3340 JUMP JUMPDEST PUSH1 0x40 MLOAD DUP1 SWAP2 SUB SWAP1 REVERT JUMPDEST PUSH1 0x0 PUSH8 0xDE0B6B3A7640000 DUP4 DUP6 PUSH2 0xCC0 SWAP2 SWAP1 PUSH2 0x338F JUMP JUMPDEST PUSH2 0xCCA SWAP2 SWAP1 PUSH2 0x3400 JUMP JUMPDEST SWAP1 POP DUP1 DUP9 PUSH2 0xCD8 SWAP2 SWAP1 PUSH2 0x3431 JUMP JUMPDEST SWAP8 POP POP POP POP POP POP DUP1 DUP1 PUSH1 0x1 ADD SWAP2 POP POP PUSH2 0xAEF JUMP JUMPDEST POP CALLVALUE DUP3 EQ PUSH2 0xD2F JUMPI PUSH1 0x40 MLOAD PUSH32 0x8C379A000000000000000000000000000000000000000000000000000000000 DUP2 MSTORE PUSH1 0x4 ADD PUSH2 0xD26 SWAP1 PUSH2 0x34B1 JUMP JUMPDEST PUSH1 0x40 MLOAD DUP1 SWAP2 SUB SWAP1 REVERT JUMPDEST PUSH1 0x0 JUMPDEST DUP2 DUP2 LT ISZERO PUSH2 0xDF1 JUMPI PUSH1 0x0 DUP10 DUP10 DUP4 DUP2 DUP2 LT PUSH2 0xD4F JUMPI PUSH2 0xD4E PUSH2 0x3181 JUMP JUMPDEST JUMPDEST SWAP1 POP PUSH1 0x20 MUL ADD CALLDATALOAD SWAP1 POP PUSH1 0x0 DUP9 DUP9 DUP5 DUP2 DUP2 LT PUSH2 0xD6D JUMPI PUSH2 0xD6C PUSH2 0x3181 JUMP JUMPDEST JUMPDEST SWAP1 POP PUSH1 0x20 MUL ADD CALLDATALOAD SWAP1 POP PUSH1 0x0 PUSH1 0xC DUP4 DUP2 SLOAD DUP2 LT PUSH2 0xD8C JUMPI PUSH2 0xD8B PUSH2 0x3181 JUMP JUMPDEST JUMPDEST SWAP1 PUSH1 0x0 MSTORE PUSH1 0x20 PUSH1 0x0 KECCAK256 SWAP1 PUSH1 0x4 MUL ADD SWAP1 POP DUP2 DUP2 PUSH1 0x1 ADD PUSH1 0x0 DUP3 DUP3 SLOAD PUSH2 0xDB0 SWAP2 SWAP1 PUSH2 0x34D1 JUMP JUMPDEST SWAP3 POP POP DUP2 SWAP1 SSTORE POP PUSH1 0x0 DUP2 PUSH1 0x1 ADD SLOAD SUB PUSH2 0xDE1 JUMPI PUSH1 0x1 DUP2 PUSH1 0x3 ADD PUSH1 0x0 PUSH2 0x100 EXP DUP2 SLOAD DUP2 PUSH1 0xFF MUL NOT AND SWAP1 DUP4 ISZERO ISZERO MUL OR SWAP1 SSTORE POP JUMPDEST POP POP POP DUP1 DUP1 PUSH1 0x1 ADD SWAP2 POP POP PUSH2 0xD32 JUMP JUMPDEST POP PUSH1 0x0 JUMPDEST DUP2 DUP2 LT ISZERO PUSH2 0x1004 JUMPI PUSH1 0x0 DUP10 DUP10 DUP4 DUP2 DUP2 LT PUSH2 0xE12 JUMPI PUSH2 0xE11 PUSH2 0x3181 JUMP JUMPDEST JUMPDEST SWAP1 POP PUSH1 0x20 MUL ADD CALLDATALOAD SWAP1 POP PUSH1 0x0 DUP9 DUP9 DUP5 DUP2 DUP2 LT PUSH2 0xE30 JUMPI PUSH2 0xE2F PUSH2 0x3181 JUMP JUMPDEST JUMPDEST SWAP1 POP PUSH1 0x20 MUL ADD CALLDATALOAD SWAP1 POP PUSH1 0x0 DUP8 DUP8 DUP6 DUP2 DUP2 LT PUSH2 0xE4E JUMPI PUSH2 0xE4D PUSH2 0x3181 JUMP JUMPDEST JUMPDEST SWAP1 POP PUSH1 0x20 MUL ADD CALLDATALOAD SWAP1 POP PUSH1 0x0 PUSH1 0xC DUP5 DUP2 SLOAD DUP2 LT PUSH2 0xE6D JUMPI PUSH2 0xE6C PUSH2 0x3181 JUMP JUMPDEST JUMPDEST SWAP1 PUSH1 0x0 MSTORE PUSH1 0x20 PUSH1 0x0 KECCAK256 SWAP1 PUSH1 0x4 MUL ADD SWAP1 POP PUSH1 0x0 PUSH8 0xDE0B6B3A7640000 DUP4 DUP6 PUSH2 0xE94 SWAP2 SWAP1 PUSH2 0x338F JUMP JUMPDEST PUSH2 0xE9E SWAP2 SWAP1 PUSH2 0x3400 JUMP JUMPDEST SWAP1 POP PUSH2 0xECF DUP3 PUSH1 0x0 ADD PUSH1 0x0 SWAP1 SLOAD SWAP1 PUSH2 0x100 EXP SWAP1 DIV PUSH20 0xFFFFFFFFFFFFFFFFFFFFFFFFFFFFFFFFFFFFFFFF AND CALLER DUP7 PUSH2 0x2249 JUMP JUMPDEST PUSH1 0x0 DUP3 PUSH1 0x0 ADD PUSH1 0x0 SWAP1 SLOAD SWAP1 PUSH2 0x100 EXP SWAP1 DIV PUSH20 0xFFFFFFFFFFFFFFFFFFFFFFFFFFFFFFFFFFFFFFFF AND PUSH20 0xFFFFFFFFFFFFFFFFFFFFFFFFFFFFFFFFFFFFFFFF AND DUP3 PUSH1 0x40 MLOAD PUSH2 0xF19 SWAP1 PUSH2 0x3536 JUMP JUMPDEST PUSH1 0x0 PUSH1 0x40 MLOAD DUP1 DUP4 SUB DUP2 DUP6 DUP8 GAS CALL SWAP3 POP POP POP RETURNDATASIZE DUP1 PUSH1 0x0 DUP2 EQ PUSH2 0xF56 JUMPI PUSH1 0x40 MLOAD SWAP2 POP PUSH1 0x1F NOT PUSH1 0x3F RETURNDATASIZE ADD AND DUP3 ADD PUSH1 0x40 MSTORE RETURNDATASIZE DUP3 MSTORE RETURNDATASIZE PUSH1 0x0 PUSH1 0x20 DUP5 ADD RETURNDATACOPY PUSH2 0xF5B JUMP JUMPDEST PUSH1 0x60 SWAP2 POP JUMPDEST POP POP SWAP1 POP DUP1 PUSH2 0xF9F JUMPI PUSH1 0x40 MLOAD PUSH32 0x8C379A000000000000000000000000000000000000000000000000000000000 DUP2 MSTORE PUSH1 0x4 ADD PUSH2 0xF96 SWAP1 PUSH2 0x3597 JUMP JUMPDEST PUSH1 0x40 MLOAD DUP1 SWAP2 SUB SWAP1 REVERT JUMPDEST CALLER PUSH20 0xFFFFFFFFFFFFFFFFFFFFFFFFFFFFFFFFFFFFFFFF AND PUSH32 0x238DABEE9AA5210C9AC8D126D3F174D36E9D3C013687C3CDCE136767F87EBAF9 DUP8 DUP8 DUP6 PUSH1 0x40 MLOAD PUSH2 0xFE9 SWAP4 SWAP3 SWAP2 SWAP1 PUSH2 0x35B7 JUMP JUMPDEST PUSH1 0x40 MLOAD DUP1 SWAP2 SUB SWAP1 LOG2 POP POP POP POP POP POP DUP1 DUP1 PUSH1 0x1 ADD SWAP2 POP POP PUSH2 0xDF5 JUMP JUMPDEST POP CALLER PUSH20 0xFFFFFFFFFFFFFFFFFFFFFFFFFFFFFFFFFFFFFFFF AND PUSH32 0x64F09CB8407AB6FB95316333F6360DDC8A9D3B72FF03FA93FA748508F0E1C0B2 DUP10 DUP10 DUP6 PUSH1 0x40 MLOAD PUSH2 0x104F SWAP4 SWAP3 SWAP2 SWAP1 PUSH2 0x3669 JUMP JUMPDEST PUSH1 0x40 MLOAD DUP1 SWAP2 SUB SWAP1 LOG2 POP POP PUSH2 0x1061 PUSH2 0x233D JUMP JUMPDEST POP POP POP POP POP POP JUMP JUMPDEST PUSH1 0x0 PUSH1 0xB PUSH1 0x0 CALLER PUSH20 0xFFFFFFFFFFFFFFFFFFFFFFFFFFFFFFFFFFFFFFFF AND PUSH20 0xFFFFFFFFFFFFFFFFFFFFFFFFFFFFFFFFFFFFFFFF AND DUP2 MSTORE PUSH1 0x20 ADD SWAP1 DUP2 MSTORE PUSH1 0x20 ADD PUSH1 0x0 KECCAK256 PUSH1 0x0 SWAP1 SLOAD SWAP1 PUSH2 0x100 EXP SWAP1 DIV PUSH1 0xFF AND PUSH2 0x10F7 JUMPI PUSH1 0x40 MLOAD PUSH32 0x8C379A000000000000000000000000000000000000000000000000000000000 DUP2 MSTORE PUSH1 0x4 ADD PUSH2 0x10EE SWAP1 PUSH2 0x36E7 JUMP JUMPDEST PUSH1 0x40 MLOAD DUP1 SWAP2 SUB SWAP1 REVERT JUMPDEST PUSH1 0x0 DUP3 GT PUSH2 0x113A JUMPI PUSH1 0x40 MLOAD PUSH32 0x8C379A000000000000000000000000000000000000000000000000000000000 DUP2 MSTORE PUSH1 0x4 ADD PUSH2 0x1131 SWAP1 PUSH2 0x3779 JUMP JUMPDEST PUSH1 0x40 MLOAD DUP1 SWAP2 SUB SWAP1 REVERT JUMPDEST PUSH1 0x0 PUSH1 0xA PUSH1 0x0 DUP7 PUSH20 0xFFFFFFFFFFFFFFFFFFFFFFFFFFFFFFFFFFFFFFFF AND PUSH20 0xFFFFFFFFFFFFFFFFFFFFFFFFFFFFFFFFFFFFFFFF AND DUP2 MSTORE PUSH1 0x20 ADD SWAP1 DUP2 MSTORE PUSH1 0x20 ADD PUSH1 0x0 KECCAK256 PUSH1 0x0 DUP6 DUP2 MSTORE PUSH1 0x20 ADD SWAP1 DUP2 MSTORE PUSH1 0x20 ADD PUSH1 0x0 KECCAK256 SLOAD EQ PUSH2 0x11CD JUMPI PUSH1 0x40 MLOAD PUSH32 0x8C379A000000000000000000000000000000000000000000000000000000000 DUP2 MSTORE PUSH1 0x4 ADD PUSH2 0x11C4 SWAP1 PUSH2 0x3831 JUMP JUMPDEST PUSH1 0x40 MLOAD DUP1 SWAP2 SUB SWAP1 REVERT JUMPDEST DUP2 PUSH1 0xA PUSH1 0x0 DUP7 PUSH20 0xFFFFFFFFFFFFFFFFFFFFFFFFFFFFFFFFFFFFFFFF AND PUSH20 0xFFFFFFFFFFFFFFFFFFFFFFFFFFFFFFFFFFFFFFFF AND DUP2 MSTORE PUSH1 0x20 ADD SWAP1 DUP2 MSTORE PUSH1 0x20 ADD PUSH1 0x0 KECCAK256 PUSH1 0x0 DUP6 DUP2 MSTORE PUSH1 0x20 ADD SWAP1 DUP2 MSTORE PUSH1 0x20 ADD PUSH1 0x0 KECCAK256 DUP2 SWAP1 SSTORE POP CALLER PUSH20 0xFFFFFFFFFFFFFFFFFFFFFFFFFFFFFFFFFFFFFFFF AND DUP5 PUSH20 0xFFFFFFFFFFFFFFFFFFFFFFFFFFFFFFFFFFFFFFFF AND PUSH32 0x582653F5E42C9C10A9FFDB53761F875742BA41DE41701939AC0E7E5D565C0DD0 DUP6 DUP6 PUSH1 0x40 MLOAD PUSH2 0x1281 SWAP3 SWAP2 SWAP1 PUSH2 0x3851 JUMP JUMPDEST PUSH1 0x40 MLOAD DUP1 SWAP2 SUB SWAP1 LOG3 PUSH1 0x1 SWAP1 POP SWAP4 SWAP3 POP POP POP JUMP JUMPDEST PUSH1 0x0 DUP1 PUSH2 0x129F PUSH2 0x205E JUMP JUMPDEST SWAP1 POP PUSH2 0x12AC DUP6 DUP3 DUP6 PUSH2 0x2347 JUMP JUMPDEST PUSH2 0x12B7 DUP6 DUP6 DUP6 PUSH2 0x2249 JUMP JUMPDEST PUSH1 0x1 SWAP2 POP POP SWAP4 SWAP3 POP POP POP JUMP JUMPDEST PUSH1 0x0 PUSH1 0x12 SWAP1 POP SWAP1 JUMP JUMPDEST PUSH2 0x12D4 PUSH2 0x2078 JUMP JUMPDEST DUP1 PUSH1 0x8 PUSH1 0x0 PUSH2 0x100 EXP DUP2 SLOAD DUP2 PUSH20 0xFFFFFFFFFFFFFFFFFFFFFFFFFFFFFFFFFFFFFFFF MUL NOT AND SWAP1 DUP4 PUSH20 0xFFFFFFFFFFFFFFFFFFFFFFFFFFFFFFFFFFFFFFFF AND MUL OR SWAP1 SSTORE POP POP JUMP JUMPDEST PUSH1 0xC DUP2 DUP2 SLOAD DUP2 LT PUSH2 0x1328 JUMPI PUSH1 0x0 DUP1 REVERT JUMPDEST SWAP1 PUSH1 0x0 MSTORE PUSH1 0x20 PUSH1 0x0 KECCAK256 SWAP1 PUSH1 0x4 MUL ADD PUSH1 0x0 SWAP2 POP SWAP1 POP DUP1 PUSH1 0x0 ADD PUSH1 0x0 SWAP1 SLOAD SWAP1 PUSH2 0x100 EXP SWAP1 DIV PUSH20 0xFFFFFFFFFFFFFFFFFFFFFFFFFFFFFFFFFFFFFFFF AND SWAP1 DUP1 PUSH1 0x1 ADD SLOAD SWAP1 DUP1 PUSH1 0x2 ADD SLOAD SWAP1 DUP1 PUSH1 0x3 ADD PUSH1 0x0 SWAP1 SLOAD SWAP1 PUSH2 0x100 EXP SWAP1 DIV PUSH1 0xFF AND SWAP1 POP DUP5 JUMP JUMPDEST PUSH2 0x138D PUSH2 0x2078 JUMP JUMPDEST PUSH1 0x1 PUSH1 0xB PUSH1 0x0 DUP4 PUSH20 0xFFFFFFFFFFFFFFFFFFFFFFFFFFFFFFFFFFFFFFFF AND PUSH20 0xFFFFFFFFFFFFFFFFFFFFFFFFFFFFFFFFFFFFFFFF AND DUP2 MSTORE PUSH1 0x20 ADD SWAP1 DUP2 MSTORE PUSH1 0x20 ADD PUSH1 0x0 KECCAK256 PUSH1 0x0 PUSH2 0x100 EXP DUP2 SLOAD DUP2 PUSH1 0xFF MUL NOT AND SWAP1 DUP4 ISZERO ISZERO MUL OR SWAP1 SSTORE POP PUSH32 0x5D7F0C690676BA31675B45BCDB9FF4C34BB10744EC89D329EACD93C79ECC029 DUP2 PUSH1 0x40 MLOAD PUSH2 0x1414 SWAP2 SWAP1 PUSH2 0x2DFC JUMP JUMPDEST PUSH1 0x40 MLOAD DUP1 SWAP2 SUB SWAP1 LOG1 POP JUMP JUMPDEST PUSH1 0x0 DUP1 PUSH1 0x0 DUP4 PUSH20 0xFFFFFFFFFFFFFFFFFFFFFFFFFFFFFFFFFFFFFFFF AND PUSH20 0xFFFFFFFFFFFFFFFFFFFFFFFFFFFFFFFFFFFFFFFF AND DUP2 MSTORE PUSH1 0x20 ADD SWAP1 DUP2 MSTORE PUSH1 0x20 ADD PUSH1 0x0 KECCAK256 SLOAD SWAP1 POP SWAP2 SWAP1 POP JUMP JUMPDEST PUSH2 0x146F PUSH2 0x2078 JUMP JUMPDEST PUSH2 0x1479 PUSH1 0x0 PUSH2 0x23DC JUMP JUMPDEST JUMP JUMPDEST PUSH1 0x7 SLOAD DUP2 JUMP JUMPDEST PUSH2 0x1489 PUSH2 0x2078 JUMP JUMPDEST DUP1 PUSH1 0x7 DUP2 SWAP1 SSTORE POP POP JUMP JUMPDEST PUSH1 0x0 PUSH1 0x5 PUSH1 0x0 SWAP1 SLOAD SWAP1 PUSH2 0x100 EXP SWAP1 DIV PUSH20 0xFFFFFFFFFFFFFFFFFFFFFFFFFFFFFFFFFFFFFFFF AND SWAP1 POP SWAP1 JUMP JUMPDEST PUSH1 0x60 PUSH1 0x4 DUP1 SLOAD PUSH2 0x14CC SWAP1 PUSH2 0x2EC6 JUMP JUMPDEST DUP1 PUSH1 0x1F ADD PUSH1 0x20 DUP1 SWAP2 DIV MUL PUSH1 0x20 ADD PUSH1 0x40 MLOAD SWAP1 DUP2 ADD PUSH1 0x40 MSTORE DUP1 SWAP3 SWAP2 SWAP1 DUP2 DUP2 MSTORE PUSH1 0x20 ADD DUP3 DUP1 SLOAD PUSH2 0x14F8 SWAP1 PUSH2 0x2EC6 JUMP JUMPDEST DUP1 ISZERO PUSH2 0x1545 JUMPI DUP1 PUSH1 0x1F LT PUSH2 0x151A JUMPI PUSH2 0x100 DUP1 DUP4 SLOAD DIV MUL DUP4 MSTORE SWAP2 PUSH1 0x20 ADD SWAP2 PUSH2 0x1545 JUMP JUMPDEST DUP3 ADD SWAP2 SWAP1 PUSH1 0x0 MSTORE PUSH1 0x20 PUSH1 0x0 KECCAK256 SWAP1 JUMPDEST DUP2 SLOAD DUP2 MSTORE SWAP1 PUSH1 0x1 ADD SWAP1 PUSH1 0x20 ADD DUP1 DUP4 GT PUSH2 0x1528 JUMPI DUP3 SWAP1 SUB PUSH1 0x1F AND DUP3 ADD SWAP2 JUMPDEST POP POP POP POP POP SWAP1 POP SWAP1 JUMP JUMPDEST PUSH1 0x0 PUSH1 0x9 SLOAD DUP3 LT ISZERO PUSH2 0x1596 JUMPI PUSH1 0x40 MLOAD PUSH32 0x8C379A000000000000000000000000000000000000000000000000000000000 DUP2 MSTORE PUSH1 0x4 ADD PUSH2 0x158D SWAP1 PUSH2 0x38EC JUMP JUMPDEST PUSH1 0x40 MLOAD DUP1 SWAP2 SUB SWAP1 REVERT JUMPDEST DUP3 PUSH2 0x15A0 CALLER PUSH2 0x141F JUMP JUMPDEST LT ISZERO PUSH2 0x15E1 JUMPI PUSH1 0x40 MLOAD PUSH32 0x8C379A000000000000000000000000000000000000000000000000000000000 DUP2 MSTORE PUSH1 0x4 ADD PUSH2 0x15D8 SWAP1 PUSH2 0x3958 JUMP JUMPDEST PUSH1 0x40 MLOAD DUP1 SWAP2 SUB SWAP1 REVERT JUMPDEST DUP3 PUSH2 0x15EC CALLER ADDRESS PUSH2 0x1C64 JUMP JUMPDEST LT ISZERO PUSH2 0x162D JUMPI PUSH1 0x40 MLOAD PUSH32 0x8C379A000000000000000000000000000000000000000000000000000000000 DUP2 MSTORE PUSH1 0x4 ADD PUSH2 0x1624 SWAP1 PUSH2 0x39EA JUMP JUMPDEST PUSH1 0x40 MLOAD DUP1 SWAP2 SUB SWAP1 REVERT JUMPDEST PUSH1 0xC PUSH1 0x40 MLOAD DUP1 PUSH1 0x80 ADD PUSH1 0x40 MSTORE DUP1 CALLER PUSH20 0xFFFFFFFFFFFFFFFFFFFFFFFFFFFFFFFFFFFFFFFF AND DUP2 MSTORE PUSH1 0x20 ADD DUP6 DUP2 MSTORE PUSH1 0x20 ADD DUP5 DUP2 MSTORE PUSH1 0x20 ADD PUSH1 0x0 ISZERO ISZERO DUP2 MSTORE POP SWAP1 DUP1 PUSH1 0x1 DUP2 SLOAD ADD DUP1 DUP3 SSTORE DUP1 SWAP2 POP POP PUSH1 0x1 SWAP1 SUB SWAP1 PUSH1 0x0 MSTORE PUSH1 0x20 PUSH1 0x0 KECCAK256 SWAP1 PUSH1 0x4 MUL ADD PUSH1 0x0 SWAP1 SWAP2 SWAP1 SWAP2 SWAP1 SWAP2 POP PUSH1 0x0 DUP3 ADD MLOAD DUP2 PUSH1 0x0 ADD PUSH1 0x0 PUSH2 0x100 EXP DUP2 SLOAD DUP2 PUSH20 0xFFFFFFFFFFFFFFFFFFFFFFFFFFFFFFFFFFFFFFFF MUL NOT AND SWAP1 DUP4 PUSH20 0xFFFFFFFFFFFFFFFFFFFFFFFFFFFFFFFFFFFFFFFF AND MUL OR SWAP1 SSTORE POP PUSH1 0x20 DUP3 ADD MLOAD DUP2 PUSH1 0x1 ADD SSTORE PUSH1 0x40 DUP3 ADD MLOAD DUP2 PUSH1 0x2 ADD SSTORE PUSH1 0x60 DUP3 ADD MLOAD DUP2 PUSH1 0x3 ADD PUSH1 0x0 PUSH2 0x100 EXP DUP2 SLOAD DUP2 PUSH1 0xFF MUL NOT AND SWAP1 DUP4 ISZERO ISZERO MUL OR SWAP1 SSTORE POP POP POP CALLER PUSH20 0xFFFFFFFFFFFFFFFFFFFFFFFFFFFFFFFFFFFFFFFF AND PUSH32 0x8D47EE76F228623F8343F2CEC0E0866027B6AAD380AB051032DBB8512068173 PUSH1 0x1 PUSH1 0xC DUP1 SLOAD SWAP1 POP PUSH2 0x1759 SWAP2 SWAP1 PUSH2 0x34D1 JUMP JUMPDEST DUP6 DUP6 PUSH1 0x40 MLOAD PUSH2 0x176A SWAP4 SWAP3 SWAP2 SWAP1 PUSH2 0x35B7 JUMP JUMPDEST PUSH1 0x40 MLOAD DUP1 SWAP2 SUB SWAP1 LOG2 PUSH1 0x1 PUSH1 0xC DUP1 SLOAD SWAP1 POP PUSH2 0x1784 SWAP2 SWAP1 PUSH2 0x34D1 JUMP JUMPDEST SWAP1 POP SWAP3 SWAP2 POP POP JUMP JUMPDEST PUSH2 0x1794 PUSH2 0x2203 JUMP JUMPDEST PUSH1 0x0 DUP2 GT PUSH2 0x17D7 JUMPI PUSH1 0x40 MLOAD PUSH32 0x8C379A000000000000000000000000000000000000000000000000000000000 DUP2 MSTORE PUSH1 0x4 ADD PUSH2 0x17CE SWAP1 PUSH2 0x3A56 JUMP JUMPDEST PUSH1 0x40 MLOAD DUP1 SWAP2 SUB SWAP1 REVERT JUMPDEST DUP1 PUSH2 0x17E1 CALLER PUSH2 0x141F JUMP JUMPDEST LT ISZERO PUSH2 0x1822 JUMPI PUSH1 0x40 MLOAD PUSH32 0x8C379A000000000000000000000000000000000000000000000000000000000 DUP2 MSTORE PUSH1 0x4 ADD PUSH2 0x1819 SWAP1 PUSH2 0x3AE8 JUMP JUMPDEST PUSH1 0x40 MLOAD DUP1 SWAP2 SUB SWAP1 REVERT JUMPDEST PUSH2 0x182C CALLER DUP3 PUSH2 0x2181 JUMP JUMPDEST PUSH2 0x1834 PUSH2 0x233D JUMP JUMPDEST POP JUMP JUMPDEST PUSH1 0x0 DUP1 PUSH2 0x1842 PUSH2 0x205E JUMP JUMPDEST SWAP1 POP PUSH2 0x184F DUP2 DUP6 DUP6 PUSH2 0x2249 JUMP JUMPDEST PUSH1 0x1 SWAP2 POP POP SWAP3 SWAP2 POP POP JUMP JUMPDEST PUSH1 0xB PUSH1 0x20 MSTORE DUP1 PUSH1 0x0 MSTORE PUSH1 0x40 PUSH1 0x0 KECCAK256 PUSH1 0x0 SWAP2 POP SLOAD SWAP1 PUSH2 0x100 EXP SWAP1 DIV PUSH1 0xFF AND DUP2 JUMP JUMPDEST PUSH1 0xA PUSH1 0x20 MSTORE DUP2 PUSH1 0x0 MSTORE PUSH1 0x40 PUSH1 0x0 KECCAK256 PUSH1 0x20 MSTORE DUP1 PUSH1 0x0 MSTORE PUSH1 0x40 PUSH1 0x0 KECCAK256 PUSH1 0x0 SWAP2 POP SWAP2 POP POP SLOAD DUP2 JUMP JUMPDEST PUSH1 0x8 PUSH1 0x0 SWAP1 SLOAD SWAP1 PUSH2 0x100 EXP SWAP1 DIV PUSH20 0xFFFFFFFFFFFFFFFFFFFFFFFFFFFFFFFFFFFFFFFF AND DUP2 JUMP JUMPDEST PUSH1 0x0 PUSH2 0x18CF PUSH2 0x2203 JUMP JUMPDEST PUSH1 0xC DUP1 SLOAD SWAP1 POP DUP4 LT PUSH2 0x1916 JUMPI PUSH1 0x40 MLOAD PUSH32 0x8C379A000000000000000000000000000000000000000000000000000000000 DUP2 MSTORE PUSH1 0x4 ADD PUSH2 0x190D SWAP1 PUSH2 0x31FC JUMP JUMPDEST PUSH1 0x40 MLOAD DUP1 SWAP2 SUB SWAP1 REVERT JUMPDEST PUSH1 0x0 PUSH1 0xC DUP5 DUP2 SLOAD DUP2 LT PUSH2 0x192C JUMPI PUSH2 0x192B PUSH2 0x3181 JUMP JUMPDEST JUMPDEST SWAP1 PUSH1 0x0 MSTORE PUSH1 0x20 PUSH1 0x0 KECCAK256 SWAP1 PUSH1 0x4 MUL ADD SWAP1 POP DUP1 PUSH1 0x3 ADD PUSH1 0x0 SWAP1 SLOAD SWAP1 PUSH2 0x100 EXP SWAP1 DIV PUSH1 0xFF AND ISZERO PUSH2 0x198E JUMPI PUSH1 0x40 MLOAD PUSH32 0x8C379A000000000000000000000000000000000000000000000000000000000 DUP2 MSTORE PUSH1 0x4 ADD PUSH2 0x1985 SWAP1 PUSH2 0x3268 JUMP JUMPDEST PUSH1 0x40 MLOAD DUP1 SWAP2 SUB SWAP1 REVERT JUMPDEST PUSH1 0x0 DUP4 GT DUP1 ISZERO PUSH2 0x19A2 JUMPI POP DUP1 PUSH1 0x1 ADD SLOAD DUP4 GT ISZERO JUMPDEST PUSH2 0x19E1 JUMPI PUSH1 0x40 MLOAD PUSH32 0x8C379A000000000000000000000000000000000000000000000000000000000 DUP2 MSTORE PUSH1 0x4 ADD PUSH2 0x19D8 SWAP1 PUSH2 0x32D4 JUMP JUMPDEST PUSH1 0x40 MLOAD DUP1 SWAP2 SUB SWAP1 REVERT JUMPDEST PUSH1 0x0 PUSH8 0xDE0B6B3A7640000 DUP3 PUSH1 0x2 ADD SLOAD DUP6 PUSH2 0x19FC SWAP2 SWAP1 PUSH2 0x338F JUMP JUMPDEST PUSH2 0x1A06 SWAP2 SWAP1 PUSH2 0x3400 JUMP JUMPDEST SWAP1 POP DUP1 CALLVALUE EQ PUSH2 0x1A4A JUMPI PUSH1 0x40 MLOAD PUSH32 0x8C379A000000000000000000000000000000000000000000000000000000000 DUP2 MSTORE PUSH1 0x4 ADD PUSH2 0x1A41 SWAP1 PUSH2 0x34B1 JUMP JUMPDEST PUSH1 0x40 MLOAD DUP1 SWAP2 SUB SWAP1 REVERT JUMPDEST DUP4 PUSH2 0x1A78 DUP4 PUSH1 0x0 ADD PUSH1 0x0 SWAP1 SLOAD SWAP1 PUSH2 0x100 EXP SWAP1 DIV PUSH20 0xFFFFFFFFFFFFFFFFFFFFFFFFFFFFFFFFFFFFFFFF AND PUSH2 0x141F JUMP JUMPDEST LT ISZERO PUSH2 0x1AB9 JUMPI PUSH1 0x40 MLOAD PUSH32 0x8C379A000000000000000000000000000000000000000000000000000000000 DUP2 MSTORE PUSH1 0x4 ADD PUSH2 0x1AB0 SWAP1 PUSH2 0x3B7A JUMP JUMPDEST PUSH1 0x40 MLOAD DUP1 SWAP2 SUB SWAP1 REVERT JUMPDEST DUP4 DUP3 PUSH1 0x1 ADD PUSH1 0x0 DUP3 DUP3 SLOAD PUSH2 0x1ACD SWAP2 SWAP1 PUSH2 0x34D1 JUMP JUMPDEST SWAP3 POP POP DUP2 SWAP1 SSTORE POP PUSH1 0x0 DUP3 PUSH1 0x1 ADD SLOAD SUB PUSH2 0x1AFE JUMPI PUSH1 0x1 DUP3 PUSH1 0x3 ADD PUSH1 0x0 PUSH2 0x100 EXP DUP2 SLOAD DUP2 PUSH1 0xFF MUL NOT AND SWAP1 DUP4 ISZERO ISZERO MUL OR SWAP1 SSTORE POP JUMPDEST PUSH2 0x1B2D DUP3 PUSH1 0x0 ADD PUSH1 0x0 SWAP1 SLOAD SWAP1 PUSH2 0x100 EXP SWAP1 DIV PUSH20 0xFFFFFFFFFFFFFFFFFFFFFFFFFFFFFFFFFFFFFFFF AND CALLER DUP7 PUSH2 0x2249 JUMP JUMPDEST PUSH1 0x0 DUP3 PUSH1 0x0 ADD PUSH1 0x0 SWAP1 SLOAD SWAP1 PUSH2 0x100 EXP SWAP1 DIV PUSH20 0xFFFFFFFFFFFFFFFFFFFFFFFFFFFFFFFFFFFFFFFF AND PUSH20 0xFFFFFFFFFFFFFFFFFFFFFFFFFFFFFFFFFFFFFFFF AND CALLVALUE PUSH1 0x40 MLOAD PUSH2 0x1B77 SWAP1 PUSH2 0x3536 JUMP JUMPDEST PUSH1 0x0 PUSH1 0x40 MLOAD DUP1 DUP4 SUB DUP2 DUP6 DUP8 GAS CALL SWAP3 POP POP POP RETURNDATASIZE DUP1 PUSH1 0x0 DUP2 EQ PUSH2 0x1BB4 JUMPI PUSH1 0x40 MLOAD SWAP2 POP PUSH1 0x1F NOT PUSH1 0x3F RETURNDATASIZE ADD AND DUP3 ADD PUSH1 0x40 MSTORE RETURNDATASIZE DUP3 MSTORE RETURNDATASIZE PUSH1 0x0 PUSH1 0x20 DUP5 ADD RETURNDATACOPY PUSH2 0x1BB9 JUMP JUMPDEST PUSH1 0x60 SWAP2 POP JUMPDEST POP POP SWAP1 POP DUP1 PUSH2 0x1BFD JUMPI PUSH1 0x40 MLOAD PUSH32 0x8C379A000000000000000000000000000000000000000000000000000000000 DUP2 MSTORE PUSH1 0x4 ADD PUSH2 0x1BF4 SWAP1 PUSH2 0x3C0C JUMP JUMPDEST PUSH1 0x40 MLOAD DUP1 SWAP2 SUB SWAP1 REVERT JUMPDEST CALLER PUSH20 0xFFFFFFFFFFFFFFFFFFFFFFFFFFFFFFFFFFFFFFFF AND PUSH32 0x238DABEE9AA5210C9AC8D126D3F174D36E9D3C013687C3CDCE136767F87EBAF9 DUP8 DUP8 CALLVALUE PUSH1 0x40 MLOAD PUSH2 0x1C47 SWAP4 SWAP3 SWAP2 SWAP1 PUSH2 0x35B7 JUMP JUMPDEST PUSH1 0x40 MLOAD DUP1 SWAP2 SUB SWAP1 LOG2 PUSH1 0x1 SWAP4 POP POP POP POP PUSH2 0x1C5E PUSH2 0x233D JUMP JUMPDEST SWAP3 SWAP2 POP POP JUMP JUMPDEST PUSH1 0x0 PUSH1 0x1 PUSH1 0x0 DUP5 PUSH20 0xFFFFFFFFFFFFFFFFFFFFFFFFFFFFFFFFFFFFFFFF AND PUSH20 0xFFFFFFFFFFFFFFFFFFFFFFFFFFFFFFFFFFFFFFFF AND DUP2 MSTORE PUSH1 0x20 ADD SWAP1 DUP2 MSTORE PUSH1 0x20 ADD PUSH1 0x0 KECCAK256 PUSH1 0x0 DUP4 PUSH20 0xFFFFFFFFFFFFFFFFFFFFFFFFFFFFFFFFFFFFFFFF AND PUSH20 0xFFFFFFFFFFFFFFFFFFFFFFFFFFFFFFFFFFFFFFFF AND DUP2 MSTORE PUSH1 0x20 ADD SWAP1 DUP2 MSTORE PUSH1 0x20 ADD PUSH1 0x0 KECCAK256 SLOAD SWAP1 POP SWAP3 SWAP2 POP POP JUMP JUMPDEST PUSH1 0x0 DUP1 DUP4 GT PUSH2 0x1D2F JUMPI PUSH1 0x40 MLOAD PUSH32 0x8C379A000000000000000000000000000000000000000000000000000000000 DUP2 MSTORE PUSH1 0x4 ADD PUSH2 0x1D26 SWAP1 PUSH2 0x3779 JUMP JUMPDEST PUSH1 0x40 MLOAD DUP1 SWAP2 SUB SWAP1 REVERT JUMPDEST PUSH1 0x0 PUSH1 0xA PUSH1 0x0 CALLER PUSH20 0xFFFFFFFFFFFFFFFFFFFFFFFFFFFFFFFFFFFFFFFF AND PUSH20 0xFFFFFFFFFFFFFFFFFFFFFFFFFFFFFFFFFFFFFFFF AND DUP2 MSTORE PUSH1 0x20 ADD SWAP1 DUP2 MSTORE PUSH1 0x20 ADD PUSH1 0x0 KECCAK256 PUSH1 0x0 DUP5 DUP2 MSTORE PUSH1 0x20 ADD SWAP1 DUP2 MSTORE PUSH1 0x20 ADD PUSH1 0x0 KECCAK256 SLOAD SWAP1 POP PUSH1 0x0 DUP2 GT PUSH2 0x1DC7 JUMPI PUSH1 0x40 MLOAD PUSH32 0x8C379A000000000000000000000000000000000000000000000000000000000 DUP2 MSTORE PUSH1 0x4 ADD PUSH2 0x1DBE SWAP1 PUSH2 0x3C9E JUMP JUMPDEST PUSH1 0x40 MLOAD DUP1 SWAP2 SUB SWAP1 REVERT JUMPDEST DUP4 DUP2 LT ISZERO PUSH2 0x1E0A JUMPI PUSH1 0x40 MLOAD PUSH32 0x8C379A000000000000000000000000000000000000000000000000000000000 DUP2 MSTORE PUSH1 0x4 ADD PUSH2 0x1E01 SWAP1 PUSH2 0x3D0A JUMP JUMPDEST PUSH1 0x40 MLOAD DUP1 SWAP2 SUB SWAP1 REVERT JUMPDEST PUSH1 0x0 PUSH1 0x7 SLOAD PUSH8 0xDE0B6B3A7640000 DUP7 PUSH2 0x1E23 SWAP2 SWAP1 PUSH2 0x338F JUMP JUMPDEST PUSH2 0x1E2D SWAP2 SWAP1 PUSH2 0x3400 JUMP JUMPDEST SWAP1 POP PUSH1 0x0 DUP2 GT PUSH2 0x1E72 JUMPI PUSH1 0x40 MLOAD PUSH32 0x8C379A000000000000000000000000000000000000000000000000000000000 DUP2 MSTORE PUSH1 0x4 ADD PUSH2 0x1E69 SWAP1 PUSH2 0x3D9C JUMP JUMPDEST PUSH1 0x40 MLOAD DUP1 SWAP2 SUB SWAP1 REVERT JUMPDEST DUP5 PUSH1 0xA PUSH1 0x0 CALLER PUSH20 0xFFFFFFFFFFFFFFFFFFFFFFFFFFFFFFFFFFFFFFFF AND PUSH20 0xFFFFFFFFFFFFFFFFFFFFFFFFFFFFFFFFFFFFFFFF AND DUP2 MSTORE PUSH1 0x20 ADD SWAP1 DUP2 MSTORE PUSH1 0x20 ADD PUSH1 0x0 KECCAK256 PUSH1 0x0 DUP7 DUP2 MSTORE PUSH1 0x20 ADD SWAP1 DUP2 MSTORE PUSH1 0x20 ADD PUSH1 0x0 KECCAK256 PUSH1 0x0 DUP3 DUP3 SLOAD PUSH2 0x1ED2 SWAP2 SWAP1 PUSH2 0x34D1 JUMP JUMPDEST SWAP3 POP POP DUP2 SWAP1 SSTORE POP PUSH2 0x1EE3 CALLER DUP3 PUSH2 0x20FF JUMP JUMPDEST CALLER PUSH20 0xFFFFFFFFFFFFFFFFFFFFFFFFFFFFFFFFFFFFFFFF AND PUSH32 0xDFA85D8CD1EA6294FB44EE96C63E3040F1A4F3EB485FCE114CA8BF9C4B367869 DUP7 DUP4 PUSH1 0x40 MLOAD PUSH2 0x1F2B SWAP3 SWAP2 SWAP1 PUSH2 0x3851 JUMP JUMPDEST PUSH1 0x40 MLOAD DUP1 SWAP2 SUB SWAP1 LOG2 DUP1 SWAP3 POP POP POP SWAP3 SWAP2 POP POP JUMP JUMPDEST PUSH2 0x1F46 PUSH2 0x2078 JUMP JUMPDEST PUSH1 0x0 PUSH20 0xFFFFFFFFFFFFFFFFFFFFFFFFFFFFFFFFFFFFFFFF AND DUP2 PUSH20 0xFFFFFFFFFFFFFFFFFFFFFFFFFFFFFFFFFFFFFFFF AND SUB PUSH2 0x1FB8 JUMPI PUSH1 0x0 PUSH1 0x40 MLOAD PUSH32 0x1E4FBDF700000000000000000000000000000000000000000000000000000000 DUP2 MSTORE PUSH1 0x4 ADD PUSH2 0x1FAF SWAP2 SWAP1 PUSH2 0x2DFC JUMP JUMPDEST PUSH1 0x40 MLOAD DUP1 SWAP2 SUB SWAP1 REVERT JUMPDEST PUSH2 0x1FC1 DUP2 PUSH2 0x23DC JUMP JUMPDEST POP JUMP JUMPDEST PUSH2 0x1FCC PUSH2 0x2078 JUMP JUMPDEST PUSH1 0x0 PUSH1 0xB PUSH1 0x0 DUP4 PUSH20 0xFFFFFFFFFFFFFFFFFFFFFFFFFFFFFFFFFFFFFFFF AND PUSH20 0xFFFFFFFFFFFFFFFFFFFFFFFFFFFFFFFFFFFFFFFF AND DUP2 MSTORE PUSH1 0x20 ADD SWAP1 DUP2 MSTORE PUSH1 0x20 ADD PUSH1 0x0 KECCAK256 PUSH1 0x0 PUSH2 0x100 EXP DUP2 SLOAD DUP2 PUSH1 0xFF MUL NOT AND SWAP1 DUP4 ISZERO ISZERO MUL OR SWAP1 SSTORE POP PUSH32 0xE8B34BA430BCB588AFAA482177753A446C3F19E29F790BB3B4CFB8EFD9E82964 DUP2 PUSH1 0x40 MLOAD PUSH2 0x2053 SWAP2 SWAP1 PUSH2 0x2DFC JUMP JUMPDEST PUSH1 0x40 MLOAD DUP1 SWAP2 SUB SWAP1 LOG1 POP JUMP JUMPDEST PUSH1 0x0 CALLER SWAP1 POP SWAP1 JUMP JUMPDEST PUSH2 0x2073 DUP4 DUP4 DUP4 PUSH1 0x1 PUSH2 0x24A2 JUMP JUMPDEST POP POP POP JUMP JUMPDEST PUSH2 0x2080 PUSH2 0x205E JUMP JUMPDEST PUSH20 0xFFFFFFFFFFFFFFFFFFFFFFFFFFFFFFFFFFFFFFFF AND PUSH2 0x209E PUSH2 0x1493 JUMP JUMPDEST PUSH20 0xFFFFFFFFFFFFFFFFFFFFFFFFFFFFFFFFFFFFFFFF AND EQ PUSH2 0x20FD JUMPI PUSH2 0x20C1 PUSH2 0x205E JUMP JUMPDEST PUSH1 0x40 MLOAD PUSH32 0x118CDAA700000000000000000000000000000000000000000000000000000000 DUP2 MSTORE PUSH1 0x4 ADD PUSH2 0x20F4 SWAP2 SWAP1 PUSH2 0x2DFC JUMP JUMPDEST PUSH1 0x40 MLOAD DUP1 SWAP2 SUB SWAP1 REVERT JUMPDEST JUMP JUMPDEST PUSH1 0x0 PUSH20 0xFFFFFFFFFFFFFFFFFFFFFFFFFFFFFFFFFFFFFFFF AND DUP3 PUSH20 0xFFFFFFFFFFFFFFFFFFFFFFFFFFFFFFFFFFFFFFFF AND SUB PUSH2 0x2171 JUMPI PUSH1 0x0 PUSH1 0x40 MLOAD PUSH32 0xEC442F0500000000000000000000000000000000000000000000000000000000 DUP2 MSTORE PUSH1 0x4 ADD PUSH2 0x2168 SWAP2 SWAP1 PUSH2 0x2DFC JUMP JUMPDEST PUSH1 0x40 MLOAD DUP1 SWAP2 SUB SWAP1 REVERT JUMPDEST PUSH2 0x217D PUSH1 0x0 DUP4 DUP4 PUSH2 0x2679 JUMP JUMPDEST POP POP JUMP JUMPDEST PUSH1 0x0 PUSH20 0xFFFFFFFFFFFFFFFFFFFFFFFFFFFFFFFFFFFFFFFF AND DUP3 PUSH20 0xFFFFFFFFFFFFFFFFFFFFFFFFFFFFFFFFFFFFFFFF AND SUB PUSH2 0x21F3 JUMPI PUSH1 0x0 PUSH1 0x40 MLOAD PUSH32 0x96C6FD1E00000000000000000000000000000000000000000000000000000000 DUP2 MSTORE PUSH1 0x4 ADD PUSH2 0x21EA SWAP2 SWAP1 PUSH2 0x2DFC JUMP JUMPDEST PUSH1 0x40 MLOAD DUP1 SWAP2 SUB SWAP1 REVERT JUMPDEST PUSH2 0x21FF DUP3 PUSH1 0x0 DUP4 PUSH2 0x2679 JUMP JUMPDEST POP POP JUMP JUMPDEST PUSH1 0x2 PUSH1 0x6 SLOAD SUB PUSH2 0x223F JUMPI PUSH1 0x40 MLOAD PUSH32 0x3EE5AEB500000000000000000000000000000000000000000000000000000000 DUP2 MSTORE PUSH1 0x4 ADD PUSH1 0x40 MLOAD DUP1 SWAP2 SUB SWAP1 REVERT JUMPDEST PUSH1 0x2 PUSH1 0x6 DUP2 SWAP1 SSTORE POP JUMP JUMPDEST PUSH1 0x0 PUSH20 0xFFFFFFFFFFFFFFFFFFFFFFFFFFFFFFFFFFFFFFFF AND DUP4 PUSH20 0xFFFFFFFFFFFFFFFFFFFFFFFFFFFFFFFFFFFFFFFF AND SUB PUSH2 0x22BB JUMPI PUSH1 0x0 PUSH1 0x40 MLOAD PUSH32 0x96C6FD1E00000000000000000000000000000000000000000000000000000000 DUP2 MSTORE PUSH1 0x4 ADD PUSH2 0x22B2 SWAP2 SWAP1 PUSH2 0x2DFC JUMP JUMPDEST PUSH1 0x40 MLOAD DUP1 SWAP2 SUB SWAP1 REVERT JUMPDEST PUSH1 0x0 PUSH20 0xFFFFFFFFFFFFFFFFFFFFFFFFFFFFFFFFFFFFFFFF AND DUP3 PUSH20 0xFFFFFFFFFFFFFFFFFFFFFFFFFFFFFFFFFFFFFFFF AND SUB PUSH2 0x232D JUMPI PUSH1 0x0 PUSH1 0x40 MLOAD PUSH32 0xEC442F0500000000000000000000000000000000000000000000000000000000 DUP2 MSTORE PUSH1 0x4 ADD PUSH2 0x2324 SWAP2 SWAP1 PUSH2 0x2DFC JUMP JUMPDEST PUSH1 0x40 MLOAD DUP1 SWAP2 SUB SWAP1 REVERT JUMPDEST PUSH2 0x2338 DUP4 DUP4 DUP4 PUSH2 0x2679 JUMP JUMPDEST POP POP POP JUMP JUMPDEST PUSH1 0x1 PUSH1 0x6 DUP2 SWAP1 SSTORE POP JUMP JUMPDEST PUSH1 0x0 PUSH2 0x2353 DUP5 DUP5 PUSH2 0x1C64 JUMP JUMPDEST SWAP1 POP PUSH32 0xFFFFFFFFFFFFFFFFFFFFFFFFFFFFFFFFFFFFFFFFFFFFFFFFFFFFFFFFFFFFFFFF DUP2 LT ISZERO PUSH2 0x23D6 JUMPI DUP2 DUP2 LT ISZERO PUSH2 0x23C6 JUMPI DUP3 DUP2 DUP4 PUSH1 0x40 MLOAD PUSH32 0xFB8F41B200000000000000000000000000000000000000000000000000000000 DUP2 MSTORE PUSH1 0x4 ADD PUSH2 0x23BD SWAP4 SWAP3 SWAP2 SWAP1 PUSH2 0x3DBC JUMP JUMPDEST PUSH1 0x40 MLOAD DUP1 SWAP2 SUB SWAP1 REVERT JUMPDEST PUSH2 0x23D5 DUP5 DUP5 DUP5 DUP5 SUB PUSH1 0x0 PUSH2 0x24A2 JUMP JUMPDEST JUMPDEST POP POP POP POP JUMP JUMPDEST PUSH1 0x0 PUSH1 0x5 PUSH1 0x0 SWAP1 SLOAD SWAP1 PUSH2 0x100 EXP SWAP1 DIV PUSH20 0xFFFFFFFFFFFFFFFFFFFFFFFFFFFFFFFFFFFFFFFF AND SWAP1 POP DUP2 PUSH1 0x5 PUSH1 0x0 PUSH2 0x100 EXP DUP2 SLOAD DUP2 PUSH20 0xFFFFFFFFFFFFFFFFFFFFFFFFFFFFFFFFFFFFFFFF MUL NOT AND SWAP1 DUP4 PUSH20 0xFFFFFFFFFFFFFFFFFFFFFFFFFFFFFFFFFFFFFFFF AND MUL OR SWAP1 SSTORE POP DUP2 PUSH20 0xFFFFFFFFFFFFFFFFFFFFFFFFFFFFFFFFFFFFFFFF AND DUP2 PUSH20 0xFFFFFFFFFFFFFFFFFFFFFFFFFFFFFFFFFFFFFFFF AND PUSH32 0x8BE0079C531659141344CD1FD0A4F28419497F9722A3DAAFE3B4186F6B6457E0 PUSH1 0x40 MLOAD PUSH1 0x40 MLOAD DUP1 SWAP2 SUB SWAP1 LOG3 POP POP JUMP JUMPDEST PUSH1 0x0 PUSH20 0xFFFFFFFFFFFFFFFFFFFFFFFFFFFFFFFFFFFFFFFF AND DUP5 PUSH20 0xFFFFFFFFFFFFFFFFFFFFFFFFFFFFFFFFFFFFFFFF AND SUB PUSH2 0x2514 JUMPI PUSH1 0x0 PUSH1 0x40 MLOAD PUSH32 0xE602DF0500000000000000000000000000000000000000000000000000000000 DUP2 MSTORE PUSH1 0x4 ADD PUSH2 0x250B SWAP2 SWAP1 PUSH2 0x2DFC JUMP JUMPDEST PUSH1 0x40 MLOAD DUP1 SWAP2 SUB SWAP1 REVERT JUMPDEST PUSH1 0x0 PUSH20 0xFFFFFFFFFFFFFFFFFFFFFFFFFFFFFFFFFFFFFFFF AND DUP4 PUSH20 0xFFFFFFFFFFFFFFFFFFFFFFFFFFFFFFFFFFFFFFFF AND SUB PUSH2 0x2586 JUMPI PUSH1 0x0 PUSH1 0x40 MLOAD PUSH32 0x94280D6200000000000000000000000000000000000000000000000000000000 DUP2 MSTORE PUSH1 0x4 ADD PUSH2 0x257D SWAP2 SWAP1 PUSH2 0x2DFC JUMP JUMPDEST PUSH1 0x40 MLOAD DUP1 SWAP2 SUB SWAP1 REVERT JUMPDEST DUP2 PUSH1 0x1 PUSH1 0x0 DUP7 PUSH20 0xFFFFFFFFFFFFFFFFFFFFFFFFFFFFFFFFFFFFFFFF AND PUSH20 0xFFFFFFFFFFFFFFFFFFFFFFFFFFFFFFFFFFFFFFFF AND DUP2 MSTORE PUSH1 0x20 ADD SWAP1 DUP2 MSTORE PUSH1 0x20 ADD PUSH1 0x0 KECCAK256 PUSH1 0x0 DUP6 PUSH20 0xFFFFFFFFFFFFFFFFFFFFFFFFFFFFFFFFFFFFFFFF AND PUSH20 0xFFFFFFFFFFFFFFFFFFFFFFFFFFFFFFFFFFFFFFFF AND DUP2 MSTORE PUSH1 0x20 ADD SWAP1 DUP2 MSTORE PUSH1 0x20 ADD PUSH1 0x0 KECCAK256 DUP2 SWAP1 SSTORE POP DUP1 ISZERO PUSH2 0x2673 JUMPI DUP3 PUSH20 0xFFFFFFFFFFFFFFFFFFFFFFFFFFFFFFFFFFFFFFFF AND DUP5 PUSH20 0xFFFFFFFFFFFFFFFFFFFFFFFFFFFFFFFFFFFFFFFF AND PUSH32 0x8C5BE1E5EBEC7D5BD14F71427D1E84F3DD0314C0F7B2291E5B200AC8C7C3B925 DUP5 PUSH1 0x40 MLOAD PUSH2 0x266A SWAP2 SWAP1 PUSH2 0x28B7 JUMP JUMPDEST PUSH1 0x40 MLOAD DUP1 SWAP2 SUB SWAP1 LOG3 JUMPDEST POP POP POP POP JUMP JUMPDEST PUSH1 0x0 PUSH20 0xFFFFFFFFFFFFFFFFFFFFFFFFFFFFFFFFFFFFFFFF AND DUP4 PUSH20 0xFFFFFFFFFFFFFFFFFFFFFFFFFFFFFFFFFFFFFFFF AND SUB PUSH2 0x26CB JUMPI DUP1 PUSH1 0x2 PUSH1 0x0 DUP3 DUP3 SLOAD PUSH2 0x26BF SWAP2 SWAP1 PUSH2 0x3431 JUMP JUMPDEST SWAP3 POP POP DUP2 SWAP1 SSTORE POP PUSH2 0x279E JUMP JUMPDEST PUSH1 0x0 DUP1 PUSH1 0x0 DUP6 PUSH20 0xFFFFFFFFFFFFFFFFFFFFFFFFFFFFFFFFFFFFFFFF AND PUSH20 0xFFFFFFFFFFFFFFFFFFFFFFFFFFFFFFFFFFFFFFFF AND DUP2 MSTORE PUSH1 0x20 ADD SWAP1 DUP2 MSTORE PUSH1 0x20 ADD PUSH1 0x0 KECCAK256 SLOAD SWAP1 POP DUP2 DUP2 LT ISZERO PUSH2 0x2757 JUMPI DUP4 DUP2 DUP4 PUSH1 0x40 MLOAD PUSH32 0xE450D38C00000000000000000000000000000000000000000000000000000000 DUP2 MSTORE PUSH1 0x4 ADD PUSH2 0x274E SWAP4 SWAP3 SWAP2 SWAP1 PUSH2 0x3DBC JUMP JUMPDEST PUSH1 0x40 MLOAD DUP1 SWAP2 SUB SWAP1 REVERT JUMPDEST DUP2 DUP2 SUB PUSH1 0x0 DUP1 DUP7 PUSH20 0xFFFFFFFFFFFFFFFFFFFFFFFFFFFFFFFFFFFFFFFF AND PUSH20 0xFFFFFFFFFFFFFFFFFFFFFFFFFFFFFFFFFFFFFFFF AND DUP2 MSTORE PUSH1 0x20 ADD SWAP1 DUP2 MSTORE PUSH1 0x20 ADD PUSH1 0x0 KECCAK256 DUP2 SWAP1 SSTORE POP POP JUMPDEST PUSH1 0x0 PUSH20 0xFFFFFFFFFFFFFFFFFFFFFFFFFFFFFFFFFFFFFFFF AND DUP3 PUSH20 0xFFFFFFFFFFFFFFFFFFFFFFFFFFFFFFFFFFFFFFFF AND SUB PUSH2 0x27E7 JUMPI DUP1 PUSH1 0x2 PUSH1 0x0 DUP3 DUP3 SLOAD SUB SWAP3 POP POP DUP2 SWAP1 SSTORE POP PUSH2 0x2834 JUMP JUMPDEST DUP1 PUSH1 0x0 DUP1 DUP5 PUSH20 0xFFFFFFFFFFFFFFFFFFFFFFFFFFFFFFFFFFFFFFFF AND PUSH20 0xFFFFFFFFFFFFFFFFFFFFFFFFFFFFFFFFFFFFFFFF AND DUP2 MSTORE PUSH1 0x20 ADD SWAP1 DUP2 MSTORE PUSH1 0x20 ADD PUSH1 0x0 KECCAK256 PUSH1 0x0 DUP3 DUP3 SLOAD ADD SWAP3 POP POP DUP2 SWAP1 SSTORE POP JUMPDEST DUP2 PUSH20 0xFFFFFFFFFFFFFFFFFFFFFFFFFFFFFFFFFFFFFFFF AND DUP4 PUSH20 0xFFFFFFFFFFFFFFFFFFFFFFFFFFFFFFFFFFFFFFFF AND PUSH32 0xDDF252AD1BE2C89B69C2B068FC378DAA952BA7F163C4A11628F55A4DF523B3EF DUP4 PUSH1 0x40 MLOAD PUSH2 0x2891 SWAP2 SWAP1 PUSH2 0x28B7 JUMP JUMPDEST PUSH1 0x40 MLOAD DUP1 SWAP2 SUB SWAP1 LOG3 POP POP POP JUMP JUMPDEST PUSH1 0x0 DUP2 SWAP1 POP SWAP2 SWAP1 POP JUMP JUMPDEST PUSH2 0x28B1 DUP2 PUSH2 0x289E JUMP JUMPDEST DUP3 MSTORE POP POP JUMP JUMPDEST PUSH1 0x0 PUSH1 0x20 DUP3 ADD SWAP1 POP PUSH2 0x28CC PUSH1 0x0 DUP4 ADD DUP5 PUSH2 0x28A8 JUMP JUMPDEST SWAP3 SWAP2 POP POP JUMP JUMPDEST PUSH1 0x0 DUP2 MLOAD SWAP1 POP SWAP2 SWAP1 POP JUMP JUMPDEST PUSH1 0x0 DUP3 DUP3 MSTORE PUSH1 0x20 DUP3 ADD SWAP1 POP SWAP3 SWAP2 POP POP JUMP JUMPDEST PUSH1 0x0 JUMPDEST DUP4 DUP2 LT ISZERO PUSH2 0x290C JUMPI DUP1 DUP3 ADD MLOAD DUP2 DUP5 ADD MSTORE PUSH1 0x20 DUP2 ADD SWAP1 POP PUSH2 0x28F1 JUMP JUMPDEST PUSH1 0x0 DUP5 DUP5 ADD MSTORE POP POP POP POP JUMP JUMPDEST PUSH1 0x0 PUSH1 0x1F NOT PUSH1 0x1F DUP4 ADD AND SWAP1 POP SWAP2 SWAP1 POP JUMP JUMPDEST PUSH1 0x0 PUSH2 0x2934 DUP3 PUSH2 0x28D2 JUMP JUMPDEST PUSH2 0x293E DUP2 DUP6 PUSH2 0x28DD JUMP JUMPDEST SWAP4 POP PUSH2 0x294E DUP2 DUP6 PUSH1 0x20 DUP7 ADD PUSH2 0x28EE JUMP JUMPDEST PUSH2 0x2957 DUP2 PUSH2 0x2918 JUMP JUMPDEST DUP5 ADD SWAP2 POP POP SWAP3 SWAP2 POP POP JUMP JUMPDEST PUSH1 0x0 PUSH1 0x20 DUP3 ADD SWAP1 POP DUP2 DUP2 SUB PUSH1 0x0 DUP4 ADD MSTORE PUSH2 0x297C DUP2 DUP5 PUSH2 0x2929 JUMP JUMPDEST SWAP1 POP SWAP3 SWAP2 POP POP JUMP JUMPDEST PUSH1 0x0 DUP1 REVERT JUMPDEST PUSH1 0x0 DUP1 REVERT JUMPDEST PUSH1 0x0 PUSH20 0xFFFFFFFFFFFFFFFFFFFFFFFFFFFFFFFFFFFFFFFF DUP3 AND SWAP1 POP SWAP2 SWAP1 POP JUMP JUMPDEST PUSH1 0x0 PUSH2 0x29B9 DUP3 PUSH2 0x298E JUMP JUMPDEST SWAP1 POP SWAP2 SWAP1 POP JUMP JUMPDEST PUSH2 0x29C9 DUP2 PUSH2 0x29AE JUMP JUMPDEST DUP2 EQ PUSH2 0x29D4 JUMPI PUSH1 0x0 DUP1 REVERT JUMPDEST POP JUMP JUMPDEST PUSH1 0x0 DUP2 CALLDATALOAD SWAP1 POP PUSH2 0x29E6 DUP2 PUSH2 0x29C0 JUMP JUMPDEST SWAP3 SWAP2 POP POP JUMP JUMPDEST PUSH2 0x29F5 DUP2 PUSH2 0x289E JUMP JUMPDEST DUP2 EQ PUSH2 0x2A00 JUMPI PUSH1 0x0 DUP1 REVERT JUMPDEST POP JUMP JUMPDEST PUSH1 0x0 DUP2 CALLDATALOAD SWAP1 POP PUSH2 0x2A12 DUP2 PUSH2 0x29EC JUMP JUMPDEST SWAP3 SWAP2 POP POP JUMP JUMPDEST PUSH1 0x0 DUP1 PUSH1 0x40 DUP4 DUP6 SUB SLT ISZERO PUSH2 0x2A2F JUMPI PUSH2 0x2A2E PUSH2 0x2984 JUMP JUMPDEST JUMPDEST PUSH1 0x0 PUSH2 0x2A3D DUP6 DUP3 DUP7 ADD PUSH2 0x29D7 JUMP JUMPDEST SWAP3 POP POP PUSH1 0x20 PUSH2 0x2A4E DUP6 DUP3 DUP7 ADD PUSH2 0x2A03 JUMP JUMPDEST SWAP2 POP POP SWAP3 POP SWAP3 SWAP1 POP JUMP JUMPDEST PUSH1 0x0 DUP2 ISZERO ISZERO SWAP1 POP SWAP2 SWAP1 POP JUMP JUMPDEST PUSH2 0x2A6D DUP2 PUSH2 0x2A58 JUMP JUMPDEST DUP3 MSTORE POP POP JUMP JUMPDEST PUSH1 0x0 PUSH1 0x20 DUP3 ADD SWAP1 POP PUSH2 0x2A88 PUSH1 0x0 DUP4 ADD DUP5 PUSH2 0x2A64 JUMP JUMPDEST SWAP3 SWAP2 POP POP JUMP JUMPDEST PUSH1 0x0 PUSH1 0x20 DUP3 DUP5 SUB SLT ISZERO PUSH2 0x2AA4 JUMPI PUSH2 0x2AA3 PUSH2 0x2984 JUMP JUMPDEST JUMPDEST PUSH1 0x0 PUSH2 0x2AB2 DUP5 DUP3 DUP6 ADD PUSH2 0x2A03 JUMP JUMPDEST SWAP2 POP POP SWAP3 SWAP2 POP POP JUMP JUMPDEST PUSH1 0x0 DUP1 REVERT JUMPDEST PUSH1 0x0 DUP1 REVERT JUMPDEST PUSH1 0x0 DUP1 REVERT JUMPDEST PUSH1 0x0 DUP1 DUP4 PUSH1 0x1F DUP5 ADD SLT PUSH2 0x2AE0 JUMPI PUSH2 0x2ADF PUSH2 0x2ABB JUMP JUMPDEST JUMPDEST DUP3 CALLDATALOAD SWAP1 POP PUSH8 0xFFFFFFFFFFFFFFFF DUP2 GT ISZERO PUSH2 0x2AFD JUMPI PUSH2 0x2AFC PUSH2 0x2AC0 JUMP JUMPDEST JUMPDEST PUSH1 0x20 DUP4 ADD SWAP2 POP DUP4 PUSH1 0x1 DUP3 MUL DUP4 ADD GT ISZERO PUSH2 0x2B19 JUMPI PUSH2 0x2B18 PUSH2 0x2AC5 JUMP JUMPDEST JUMPDEST SWAP3 POP SWAP3 SWAP1 POP JUMP JUMPDEST PUSH1 0x0 DUP1 PUSH1 0x0 DUP1 PUSH1 0x60 DUP6 DUP8 SUB SLT ISZERO PUSH2 0x2B3A JUMPI PUSH2 0x2B39 PUSH2 0x2984 JUMP JUMPDEST JUMPDEST PUSH1 0x0 PUSH2 0x2B48 DUP8 DUP3 DUP9 ADD PUSH2 0x29D7 JUMP JUMPDEST SWAP5 POP POP PUSH1 0x20 PUSH2 0x2B59 DUP8 DUP3 DUP9 ADD PUSH2 0x2A03 JUMP JUMPDEST SWAP4 POP POP PUSH1 0x40 DUP6 ADD CALLDATALOAD PUSH8 0xFFFFFFFFFFFFFFFF DUP2 GT ISZERO PUSH2 0x2B7A JUMPI PUSH2 0x2B79 PUSH2 0x2989 JUMP JUMPDEST JUMPDEST PUSH2 0x2B86 DUP8 DUP3 DUP9 ADD PUSH2 0x2ACA JUMP JUMPDEST SWAP3 POP SWAP3 POP POP SWAP3 SWAP6 SWAP2 SWAP5 POP SWAP3 POP JUMP JUMPDEST PUSH1 0x0 DUP1 DUP4 PUSH1 0x1F DUP5 ADD SLT PUSH2 0x2BAA JUMPI PUSH2 0x2BA9 PUSH2 0x2ABB JUMP JUMPDEST JUMPDEST DUP3 CALLDATALOAD SWAP1 POP PUSH8 0xFFFFFFFFFFFFFFFF DUP2 GT ISZERO PUSH2 0x2BC7 JUMPI PUSH2 0x2BC6 PUSH2 0x2AC0 JUMP JUMPDEST JUMPDEST PUSH1 0x20 DUP4 ADD SWAP2 POP DUP4 PUSH1 0x20 DUP3 MUL DUP4 ADD GT ISZERO PUSH2 0x2BE3 JUMPI PUSH2 0x2BE2 PUSH2 0x2AC5 JUMP JUMPDEST JUMPDEST SWAP3 POP SWAP3 SWAP1 POP JUMP JUMPDEST PUSH1 0x0 DUP1 PUSH1 0x0 DUP1 PUSH1 0x0 DUP1 PUSH1 0x60 DUP8 DUP10 SUB SLT ISZERO PUSH2 0x2C07 JUMPI PUSH2 0x2C06 PUSH2 0x2984 JUMP JUMPDEST JUMPDEST PUSH1 0x0 DUP8 ADD CALLDATALOAD PUSH8 0xFFFFFFFFFFFFFFFF DUP2 GT ISZERO PUSH2 0x2C25 JUMPI PUSH2 0x2C24 PUSH2 0x2989 JUMP JUMPDEST JUMPDEST PUSH2 0x2C31 DUP10 DUP3 DUP11 ADD PUSH2 0x2B94 JUMP JUMPDEST SWAP7 POP SWAP7 POP POP PUSH1 0x20 DUP8 ADD CALLDATALOAD PUSH8 0xFFFFFFFFFFFFFFFF DUP2 GT ISZERO PUSH2 0x2C54 JUMPI PUSH2 0x2C53 PUSH2 0x2989 JUMP JUMPDEST JUMPDEST PUSH2 0x2C60 DUP10 DUP3 DUP11 ADD PUSH2 0x2B94 JUMP JUMPDEST SWAP5 POP SWAP5 POP POP PUSH1 0x40 DUP8 ADD CALLDATALOAD PUSH8 0xFFFFFFFFFFFFFFFF DUP2 GT ISZERO PUSH2 0x2C83 JUMPI PUSH2 0x2C82 PUSH2 0x2989 JUMP JUMPDEST JUMPDEST PUSH2 0x2C8F DUP10 DUP3 DUP11 ADD PUSH2 0x2B94 JUMP JUMPDEST SWAP3 POP SWAP3 POP POP SWAP3 SWAP6 POP SWAP3 SWAP6 POP SWAP3 SWAP6 JUMP JUMPDEST PUSH1 0x0 DUP1 PUSH1 0x0 PUSH1 0x60 DUP5 DUP7 SUB SLT ISZERO PUSH2 0x2CB7 JUMPI PUSH2 0x2CB6 PUSH2 0x2984 JUMP JUMPDEST JUMPDEST PUSH1 0x0 PUSH2 0x2CC5 DUP7 DUP3 DUP8 ADD PUSH2 0x29D7 JUMP JUMPDEST SWAP4 POP POP PUSH1 0x20 PUSH2 0x2CD6 DUP7 DUP3 DUP8 ADD PUSH2 0x2A03 JUMP JUMPDEST SWAP3 POP POP PUSH1 0x40 PUSH2 0x2CE7 DUP7 DUP3 DUP8 ADD PUSH2 0x2A03 JUMP JUMPDEST SWAP2 POP POP SWAP3 POP SWAP3 POP SWAP3 JUMP JUMPDEST PUSH1 0x0 DUP1 PUSH1 0x0 PUSH1 0x60 DUP5 DUP7 SUB SLT ISZERO PUSH2 0x2D0A JUMPI PUSH2 0x2D09 PUSH2 0x2984 JUMP JUMPDEST JUMPDEST PUSH1 0x0 PUSH2 0x2D18 DUP7 DUP3 DUP8 ADD PUSH2 0x29D7 JUMP JUMPDEST SWAP4 POP POP PUSH1 0x20 PUSH2 0x2D29 DUP7 DUP3 DUP8 ADD PUSH2 0x29D7 JUMP JUMPDEST SWAP3 POP POP PUSH1 0x40 PUSH2 0x2D3A DUP7 DUP3 DUP8 ADD PUSH2 0x2A03 JUMP JUMPDEST SWAP2 POP POP SWAP3 POP SWAP3 POP SWAP3 JUMP JUMPDEST PUSH1 0x0 PUSH1 0xFF DUP3 AND SWAP1 POP SWAP2 SWAP1 POP JUMP JUMPDEST PUSH2 0x2D5A DUP2 PUSH2 0x2D44 JUMP JUMPDEST DUP3 MSTORE POP POP JUMP JUMPDEST PUSH1 0x0 PUSH1 0x20 DUP3 ADD SWAP1 POP PUSH2 0x2D75 PUSH1 0x0 DUP4 ADD DUP5 PUSH2 0x2D51 JUMP JUMPDEST SWAP3 SWAP2 POP POP JUMP JUMPDEST PUSH1 0x0 PUSH1 0x20 DUP3 DUP5 SUB SLT ISZERO PUSH2 0x2D91 JUMPI PUSH2 0x2D90 PUSH2 0x2984 JUMP JUMPDEST JUMPDEST PUSH1 0x0 PUSH2 0x2D9F DUP5 DUP3 DUP6 ADD PUSH2 0x29D7 JUMP JUMPDEST SWAP2 POP POP SWAP3 SWAP2 POP POP JUMP JUMPDEST PUSH2 0x2DB1 DUP2 PUSH2 0x29AE JUMP JUMPDEST DUP3 MSTORE POP POP JUMP JUMPDEST PUSH1 0x0 PUSH1 0x80 DUP3 ADD SWAP1 POP PUSH2 0x2DCC PUSH1 0x0 DUP4 ADD DUP8 PUSH2 0x2DA8 JUMP JUMPDEST PUSH2 0x2DD9 PUSH1 0x20 DUP4 ADD DUP7 PUSH2 0x28A8 JUMP JUMPDEST PUSH2 0x2DE6 PUSH1 0x40 DUP4 ADD DUP6 PUSH2 0x28A8 JUMP JUMPDEST PUSH2 0x2DF3 PUSH1 0x60 DUP4 ADD DUP5 PUSH2 0x2A64 JUMP JUMPDEST SWAP6 SWAP5 POP POP POP POP POP JUMP JUMPDEST PUSH1 0x0 PUSH1 0x20 DUP3 ADD SWAP1 POP PUSH2 0x2E11 PUSH1 0x0 DUP4 ADD DUP5 PUSH2 0x2DA8 JUMP JUMPDEST SWAP3 SWAP2 POP POP JUMP JUMPDEST PUSH1 0x0 DUP1 PUSH1 0x40 DUP4 DUP6 SUB SLT ISZERO PUSH2 0x2E2E JUMPI PUSH2 0x2E2D PUSH2 0x2984 JUMP JUMPDEST JUMPDEST PUSH1 0x0 PUSH2 0x2E3C DUP6 DUP3 DUP7 ADD PUSH2 0x2A03 JUMP JUMPDEST SWAP3 POP POP PUSH1 0x20 PUSH2 0x2E4D DUP6 DUP3 DUP7 ADD PUSH2 0x2A03 JUMP JUMPDEST SWAP2 POP POP SWAP3 POP SWAP3 SWAP1 POP JUMP JUMPDEST PUSH1 0x0 DUP1 PUSH1 0x40 DUP4 DUP6 SUB SLT ISZERO PUSH2 0x2E6E JUMPI PUSH2 0x2E6D PUSH2 0x2984 JUMP JUMPDEST JUMPDEST PUSH1 0x0 PUSH2 0x2E7C DUP6 DUP3 DUP7 ADD PUSH2 0x29D7 JUMP JUMPDEST SWAP3 POP POP PUSH1 0x20 PUSH2 0x2E8D DUP6 DUP3 DUP7 ADD PUSH2 0x29D7 JUMP JUMPDEST SWAP2 POP POP SWAP3 POP SWAP3 SWAP1 POP JUMP JUMPDEST PUSH32 0x4E487B7100000000000000000000000000000000000000000000000000000000 PUSH1 0x0 MSTORE PUSH1 0x22 PUSH1 0x4 MSTORE PUSH1 0x24 PUSH1 0x0 REVERT JUMPDEST PUSH1 0x0 PUSH1 0x2 DUP3 DIV SWAP1 POP PUSH1 0x1 DUP3 AND DUP1 PUSH2 0x2EDE JUMPI PUSH1 0x7F DUP3 AND SWAP2 POP JUMPDEST PUSH1 0x20 DUP3 LT DUP2 SUB PUSH2 0x2EF1 JUMPI PUSH2 0x2EF0 PUSH2 0x2E97 JUMP JUMPDEST JUMPDEST POP SWAP2 SWAP1 POP JUMP JUMPDEST PUSH32 0x4E6F7420612076616C6964206164647265737300000000000000000000000000 PUSH1 0x0 DUP3 ADD MSTORE POP JUMP JUMPDEST PUSH1 0x0 PUSH2 0x2F2D PUSH1 0x13 DUP4 PUSH2 0x28DD JUMP JUMPDEST SWAP2 POP PUSH2 0x2F38 DUP3 PUSH2 0x2EF7 JUMP JUMPDEST PUSH1 0x20 DUP3 ADD SWAP1 POP SWAP2 SWAP1 POP JUMP JUMPDEST PUSH1 0x0 PUSH1 0x20 DUP3 ADD SWAP1 POP DUP2 DUP2 SUB PUSH1 0x0 DUP4 ADD MSTORE PUSH2 0x2F5C DUP2 PUSH2 0x2F20 JUMP JUMPDEST SWAP1 POP SWAP2 SWAP1 POP JUMP JUMPDEST PUSH32 0x526561736F6E206D7573742062652070726F7669646564000000000000000000 PUSH1 0x0 DUP3 ADD MSTORE POP JUMP JUMPDEST PUSH1 0x0 PUSH2 0x2F99 PUSH1 0x17 DUP4 PUSH2 0x28DD JUMP JUMPDEST SWAP2 POP PUSH2 0x2FA4 DUP3 PUSH2 0x2F63 JUMP JUMPDEST PUSH1 0x20 DUP3 ADD SWAP1 POP SWAP2 SWAP1 POP JUMP JUMPDEST PUSH1 0x0 PUSH1 0x20 DUP3 ADD SWAP1 POP DUP2 DUP2 SUB PUSH1 0x0 DUP4 ADD MSTORE PUSH2 0x2FC8 DUP2 PUSH2 0x2F8C JUMP JUMPDEST SWAP1 POP SWAP2 SWAP1 POP JUMP JUMPDEST DUP3 DUP2 DUP4 CALLDATACOPY PUSH1 0x0 DUP4 DUP4 ADD MSTORE POP POP POP JUMP JUMPDEST PUSH1 0x0 PUSH2 0x2FEA DUP4 DUP6 PUSH2 0x28DD JUMP JUMPDEST SWAP4 POP PUSH2 0x2FF7 DUP4 DUP6 DUP5 PUSH2 0x2FCF JUMP JUMPDEST PUSH2 0x3000 DUP4 PUSH2 0x2918 JUMP JUMPDEST DUP5 ADD SWAP1 POP SWAP4 SWAP3 POP POP POP JUMP JUMPDEST PUSH1 0x0 PUSH1 0x40 DUP3 ADD SWAP1 POP PUSH2 0x3020 PUSH1 0x0 DUP4 ADD DUP7 PUSH2 0x28A8 JUMP JUMPDEST DUP2 DUP2 SUB PUSH1 0x20 DUP4 ADD MSTORE PUSH2 0x3033 DUP2 DUP5 DUP7 PUSH2 0x2FDE JUMP JUMPDEST SWAP1 POP SWAP5 SWAP4 POP POP POP POP JUMP JUMPDEST PUSH32 0x456D707479206F72646572206172726179000000000000000000000000000000 PUSH1 0x0 DUP3 ADD MSTORE POP JUMP JUMPDEST PUSH1 0x0 PUSH2 0x3073 PUSH1 0x11 DUP4 PUSH2 0x28DD JUMP JUMPDEST SWAP2 POP PUSH2 0x307E DUP3 PUSH2 0x303D JUMP JUMPDEST PUSH1 0x20 DUP3 ADD SWAP1 POP SWAP2 SWAP1 POP JUMP JUMPDEST PUSH1 0x0 PUSH1 0x20 DUP3 ADD SWAP1 POP DUP2 DUP2 SUB PUSH1 0x0 DUP4 ADD MSTORE PUSH2 0x30A2 DUP2 PUSH2 0x3066 JUMP JUMPDEST SWAP1 POP SWAP2 SWAP1 POP JUMP JUMPDEST PUSH32 0x4D69736D617463686564206F7264657220646174610000000000000000000000 PUSH1 0x0 DUP3 ADD MSTORE POP JUMP JUMPDEST PUSH1 0x0 PUSH2 0x30DF PUSH1 0x15 DUP4 PUSH2 0x28DD JUMP JUMPDEST SWAP2 POP PUSH2 0x30EA DUP3 PUSH2 0x30A9 JUMP JUMPDEST PUSH1 0x20 DUP3 ADD SWAP1 POP SWAP2 SWAP1 POP JUMP JUMPDEST PUSH1 0x0 PUSH1 0x20 DUP3 ADD SWAP1 POP DUP2 DUP2 SUB PUSH1 0x0 DUP4 ADD MSTORE PUSH2 0x310E DUP2 PUSH2 0x30D2 JUMP JUMPDEST SWAP1 POP SWAP2 SWAP1 POP JUMP JUMPDEST PUSH32 0x4D69736D61746368656420707269636520646174610000000000000000000000 PUSH1 0x0 DUP3 ADD MSTORE POP JUMP JUMPDEST PUSH1 0x0 PUSH2 0x314B PUSH1 0x15 DUP4 PUSH2 0x28DD JUMP JUMPDEST SWAP2 POP PUSH2 0x3156 DUP3 PUSH2 0x3115 JUMP JUMPDEST PUSH1 0x20 DUP3 ADD SWAP1 POP SWAP2 SWAP1 POP JUMP JUMPDEST PUSH1 0x0 PUSH1 0x20 DUP3 ADD SWAP1 POP DUP2 DUP2 SUB PUSH1 0x0 DUP4 ADD MSTORE PUSH2 0x317A DUP2 PUSH2 0x313E JUMP JUMPDEST SWAP1 POP SWAP2 SWAP1 POP JUMP JUMPDEST PUSH32 0x4E487B7100000000000000000000000000000000000000000000000000000000 PUSH1 0x0 MSTORE PUSH1 0x32 PUSH1 0x4 MSTORE PUSH1 0x24 PUSH1 0x0 REVERT JUMPDEST PUSH32 0x496E76616C6964206F7264657220494400000000000000000000000000000000 PUSH1 0x0 DUP3 ADD MSTORE POP JUMP JUMPDEST PUSH1 0x0 PUSH2 0x31E6 PUSH1 0x10 DUP4 PUSH2 0x28DD JUMP JUMPDEST SWAP2 POP PUSH2 0x31F1 DUP3 PUSH2 0x31B0 JUMP JUMPDEST PUSH1 0x20 DUP3 ADD SWAP1 POP SWAP2 SWAP1 POP JUMP JUMPDEST PUSH1 0x0 PUSH1 0x20 DUP3 ADD SWAP1 POP DUP2 DUP2 SUB PUSH1 0x0 DUP4 ADD MSTORE PUSH2 0x3215 DUP2 PUSH2 0x31D9 JUMP JUMPDEST SWAP1 POP SWAP2 SWAP1 POP JUMP JUMPDEST PUSH32 0x4F7264657220616C72656164792066756C66696C6C6564000000000000000000 PUSH1 0x0 DUP3 ADD MSTORE POP JUMP JUMPDEST PUSH1 0x0 PUSH2 0x3252 PUSH1 0x17 DUP4 PUSH2 0x28DD JUMP JUMPDEST SWAP2 POP PUSH2 0x325D DUP3 PUSH2 0x321C JUMP JUMPDEST PUSH1 0x20 DUP3 ADD SWAP1 POP SWAP2 SWAP1 POP JUMP JUMPDEST PUSH1 0x0 PUSH1 0x20 DUP3 ADD SWAP1 POP DUP2 DUP2 SUB PUSH1 0x0 DUP4 ADD MSTORE PUSH2 0x3281 DUP2 PUSH2 0x3245 JUMP JUMPDEST SWAP1 POP SWAP2 SWAP1 POP JUMP JUMPDEST PUSH32 0x496E76616C696420707572636861736520616D6F756E74000000000000000000 PUSH1 0x0 DUP3 ADD MSTORE POP JUMP JUMPDEST PUSH1 0x0 PUSH2 0x32BE PUSH1 0x17 DUP4 PUSH2 0x28DD JUMP JUMPDEST SWAP2 POP PUSH2 0x32C9 DUP3 PUSH2 0x3288 JUMP JUMPDEST PUSH1 0x20 DUP3 ADD SWAP1 POP SWAP2 SWAP1 POP JUMP JUMPDEST PUSH1 0x0 PUSH1 0x20 DUP3 ADD SWAP1 POP DUP2 DUP2 SUB PUSH1 0x0 DUP4 ADD MSTORE PUSH2 0x32ED DUP2 PUSH2 0x32B1 JUMP JUMPDEST SWAP1 POP SWAP2 SWAP1 POP JUMP JUMPDEST PUSH32 0x5072696365206D69736D61746368000000000000000000000000000000000000 PUSH1 0x0 DUP3 ADD MSTORE POP JUMP JUMPDEST PUSH1 0x0 PUSH2 0x332A PUSH1 0xE DUP4 PUSH2 0x28DD JUMP JUMPDEST SWAP2 POP PUSH2 0x3335 DUP3 PUSH2 0x32F4 JUMP JUMPDEST PUSH1 0x20 DUP3 ADD SWAP1 POP SWAP2 SWAP1 POP JUMP JUMPDEST PUSH1 0x0 PUSH1 0x20 DUP3 ADD SWAP1 POP DUP2 DUP2 SUB PUSH1 0x0 DUP4 ADD MSTORE PUSH2 0x3359 DUP2 PUSH2 0x331D JUMP JUMPDEST SWAP1 POP SWAP2 SWAP1 POP JUMP JUMPDEST PUSH32 0x4E487B7100000000000000000000000000000000000000000000000000000000 PUSH1 0x0 MSTORE PUSH1 0x11 PUSH1 0x4 MSTORE PUSH1 0x24 PUSH1 0x0 REVERT JUMPDEST PUSH1 0x0 PUSH2 0x339A DUP3 PUSH2 0x289E JUMP JUMPDEST SWAP2 POP PUSH2 0x33A5 DUP4 PUSH2 0x289E JUMP JUMPDEST SWAP3 POP DUP3 DUP3 MUL PUSH2 0x33B3 DUP2 PUSH2 0x289E JUMP JUMPDEST SWAP2 POP DUP3 DUP3 DIV DUP5 EQ DUP4 ISZERO OR PUSH2 0x33CA JUMPI PUSH2 0x33C9 PUSH2 0x3360 JUMP JUMPDEST JUMPDEST POP SWAP3 SWAP2 POP POP JUMP JUMPDEST PUSH32 0x4E487B7100000000000000000000000000000000000000000000000000000000 PUSH1 0x0 MSTORE PUSH1 0x12 PUSH1 0x4 MSTORE PUSH1 0x24 PUSH1 0x0 REVERT JUMPDEST PUSH1 0x0 PUSH2 0x340B DUP3 PUSH2 0x289E JUMP JUMPDEST SWAP2 POP PUSH2 0x3416 DUP4 PUSH2 0x289E JUMP JUMPDEST SWAP3 POP DUP3 PUSH2 0x3426 JUMPI PUSH2 0x3425 PUSH2 0x33D1 JUMP JUMPDEST JUMPDEST DUP3 DUP3 DIV SWAP1 POP SWAP3 SWAP2 POP POP JUMP JUMPDEST PUSH1 0x0 PUSH2 0x343C DUP3 PUSH2 0x289E JUMP JUMPDEST SWAP2 POP PUSH2 0x3447 DUP4 PUSH2 0x289E JUMP JUMPDEST SWAP3 POP DUP3 DUP3 ADD SWAP1 POP DUP1 DUP3 GT ISZERO PUSH2 0x345F JUMPI PUSH2 0x345E PUSH2 0x3360 JUMP JUMPDEST JUMPDEST SWAP3 SWAP2 POP POP JUMP JUMPDEST PUSH32 0x496E636F7272656374207061796D656E7420616D6F756E740000000000000000 PUSH1 0x0 DUP3 ADD MSTORE POP JUMP JUMPDEST PUSH1 0x0 PUSH2 0x349B PUSH1 0x18 DUP4 PUSH2 0x28DD JUMP JUMPDEST SWAP2 POP PUSH2 0x34A6 DUP3 PUSH2 0x3465 JUMP JUMPDEST PUSH1 0x20 DUP3 ADD SWAP1 POP SWAP2 SWAP1 POP JUMP JUMPDEST PUSH1 0x0 PUSH1 0x20 DUP3 ADD SWAP1 POP DUP2 DUP2 SUB PUSH1 0x0 DUP4 ADD MSTORE PUSH2 0x34CA DUP2 PUSH2 0x348E JUMP JUMPDEST SWAP1 POP SWAP2 SWAP1 POP JUMP JUMPDEST PUSH1 0x0 PUSH2 0x34DC DUP3 PUSH2 0x289E JUMP JUMPDEST SWAP2 POP PUSH2 0x34E7 DUP4 PUSH2 0x289E JUMP JUMPDEST SWAP3 POP DUP3 DUP3 SUB SWAP1 POP DUP2 DUP2 GT ISZERO PUSH2 0x34FF JUMPI PUSH2 0x34FE PUSH2 0x3360 JUMP JUMPDEST JUMPDEST SWAP3 SWAP2 POP POP JUMP JUMPDEST PUSH1 0x0 DUP2 SWAP1 POP SWAP3 SWAP2 POP POP JUMP JUMPDEST POP JUMP JUMPDEST PUSH1 0x0 PUSH2 0x3520 PUSH1 0x0 DUP4 PUSH2 0x3505 JUMP JUMPDEST SWAP2 POP PUSH2 0x352B DUP3 PUSH2 0x3510 JUMP JUMPDEST PUSH1 0x0 DUP3 ADD SWAP1 POP SWAP2 SWAP1 POP JUMP JUMPDEST PUSH1 0x0 PUSH2 0x3541 DUP3 PUSH2 0x3513 JUMP JUMPDEST SWAP2 POP DUP2 SWAP1 POP SWAP2 SWAP1 POP JUMP JUMPDEST PUSH32 0x5061796D656E7420746F2073656C6C6572206661696C65640000000000000000 PUSH1 0x0 DUP3 ADD MSTORE POP JUMP JUMPDEST PUSH1 0x0 PUSH2 0x3581 PUSH1 0x18 DUP4 PUSH2 0x28DD JUMP JUMPDEST SWAP2 POP PUSH2 0x358C DUP3 PUSH2 0x354B JUMP JUMPDEST PUSH1 0x20 DUP3 ADD SWAP1 POP SWAP2 SWAP1 POP JUMP JUMPDEST PUSH1 0x0 PUSH1 0x20 DUP3 ADD SWAP1 POP DUP2 DUP2 SUB PUSH1 0x0 DUP4 ADD MSTORE PUSH2 0x35B0 DUP2 PUSH2 0x3574 JUMP JUMPDEST SWAP1 POP SWAP2 SWAP1 POP JUMP JUMPDEST PUSH1 0x0 PUSH1 0x60 DUP3 ADD SWAP1 POP PUSH2 0x35CC PUSH1 0x0 DUP4 ADD DUP7 PUSH2 0x28A8 JUMP JUMPDEST PUSH2 0x35D9 PUSH1 0x20 DUP4 ADD DUP6 PUSH2 0x28A8 JUMP JUMPDEST PUSH2 0x35E6 PUSH1 0x40 DUP4 ADD DUP5 PUSH2 0x28A8 JUMP JUMPDEST SWAP5 SWAP4 POP POP POP POP JUMP JUMPDEST PUSH1 0x0 DUP3 DUP3 MSTORE PUSH1 0x20 DUP3 ADD SWAP1 POP SWAP3 SWAP2 POP POP JUMP JUMPDEST PUSH1 0x0 DUP1 REVERT JUMPDEST DUP3 DUP2 DUP4 CALLDATACOPY POP POP POP JUMP JUMPDEST PUSH1 0x0 PUSH2 0x3619 DUP4 DUP6 PUSH2 0x35EE JUMP JUMPDEST SWAP4 POP PUSH32 0x7FFFFFFFFFFFFFFFFFFFFFFFFFFFFFFFFFFFFFFFFFFFFFFFFFFFFFFFFFFFFFF DUP4 GT ISZERO PUSH2 0x364C JUMPI PUSH2 0x364B PUSH2 0x35FF JUMP JUMPDEST JUMPDEST PUSH1 0x20 DUP4 MUL SWAP3 POP PUSH2 0x365D DUP4 DUP6 DUP5 PUSH2 0x3604 JUMP JUMPDEST DUP3 DUP5 ADD SWAP1 POP SWAP4 SWAP3 POP POP POP JUMP JUMPDEST PUSH1 0x0 PUSH1 0x40 DUP3 ADD SWAP1 POP DUP2 DUP2 SUB PUSH1 0x0 DUP4 ADD MSTORE PUSH2 0x3684 DUP2 DUP6 DUP8 PUSH2 0x360D JUMP JUMPDEST SWAP1 POP PUSH2 0x3693 PUSH1 0x20 DUP4 ADD DUP5 PUSH2 0x28A8 JUMP JUMPDEST SWAP5 SWAP4 POP POP POP POP JUMP JUMPDEST PUSH32 0x446576696365206E6F7420726567697374657265640000000000000000000000 PUSH1 0x0 DUP3 ADD MSTORE POP JUMP JUMPDEST PUSH1 0x0 PUSH2 0x36D1 PUSH1 0x15 DUP4 PUSH2 0x28DD JUMP JUMPDEST SWAP2 POP PUSH2 0x36DC DUP3 PUSH2 0x369B JUMP JUMPDEST PUSH1 0x20 DUP3 ADD SWAP1 POP SWAP2 SWAP1 POP JUMP JUMPDEST PUSH1 0x0 PUSH1 0x20 DUP3 ADD SWAP1 POP DUP2 DUP2 SUB PUSH1 0x0 DUP4 ADD MSTORE PUSH2 0x3700 DUP2 PUSH2 0x36C4 JUMP JUMPDEST SWAP1 POP SWAP2 SWAP1 POP JUMP JUMPDEST PUSH32 0x456E657267792070726F6475636564206D757374206265206772656174657220 PUSH1 0x0 DUP3 ADD MSTORE PUSH32 0x7468616E20300000000000000000000000000000000000000000000000000000 PUSH1 0x20 DUP3 ADD MSTORE POP JUMP JUMPDEST PUSH1 0x0 PUSH2 0x3763 PUSH1 0x26 DUP4 PUSH2 0x28DD JUMP JUMPDEST SWAP2 POP PUSH2 0x376E DUP3 PUSH2 0x3707 JUMP JUMPDEST PUSH1 0x40 DUP3 ADD SWAP1 POP SWAP2 SWAP1 POP JUMP JUMPDEST PUSH1 0x0 PUSH1 0x20 DUP3 ADD SWAP1 POP DUP2 DUP2 SUB PUSH1 0x0 DUP4 ADD MSTORE PUSH2 0x3792 DUP2 PUSH2 0x3756 JUMP JUMPDEST SWAP1 POP SWAP2 SWAP1 POP JUMP JUMPDEST PUSH32 0x4461746120616C7265616479206C6F6767656420666F7220746869732074696D PUSH1 0x0 DUP3 ADD MSTORE PUSH32 0x657374616D7020616E6420437265646974732068617665206265656E20656172 PUSH1 0x20 DUP3 ADD MSTORE PUSH32 0x6E65640000000000000000000000000000000000000000000000000000000000 PUSH1 0x40 DUP3 ADD MSTORE POP JUMP JUMPDEST PUSH1 0x0 PUSH2 0x381B PUSH1 0x43 DUP4 PUSH2 0x28DD JUMP JUMPDEST SWAP2 POP PUSH2 0x3826 DUP3 PUSH2 0x3799 JUMP JUMPDEST PUSH1 0x60 DUP3 ADD SWAP1 POP SWAP2 SWAP1 POP JUMP JUMPDEST PUSH1 0x0 PUSH1 0x20 DUP3 ADD SWAP1 POP DUP2 DUP2 SUB PUSH1 0x0 DUP4 ADD MSTORE PUSH2 0x384A DUP2 PUSH2 0x380E JUMP JUMPDEST SWAP1 POP SWAP2 SWAP1 POP JUMP JUMPDEST PUSH1 0x0 PUSH1 0x40 DUP3 ADD SWAP1 POP PUSH2 0x3866 PUSH1 0x0 DUP4 ADD DUP6 PUSH2 0x28A8 JUMP JUMPDEST PUSH2 0x3873 PUSH1 0x20 DUP4 ADD DUP5 PUSH2 0x28A8 JUMP JUMPDEST SWAP4 SWAP3 POP POP POP JUMP JUMPDEST PUSH32 0x50726963652070657220746F6B656E2063616E2774206265206C657373207468 PUSH1 0x0 DUP3 ADD MSTORE PUSH32 0x616E2074686520666C6F6F722070726F6365206F6620746865206D61726B6574 PUSH1 0x20 DUP3 ADD MSTORE POP JUMP JUMPDEST PUSH1 0x0 PUSH2 0x38D6 PUSH1 0x40 DUP4 PUSH2 0x28DD JUMP JUMPDEST SWAP2 POP PUSH2 0x38E1 DUP3 PUSH2 0x387A JUMP JUMPDEST PUSH1 0x40 DUP3 ADD SWAP1 POP SWAP2 SWAP1 POP JUMP JUMPDEST PUSH1 0x0 PUSH1 0x20 DUP3 ADD SWAP1 POP DUP2 DUP2 SUB PUSH1 0x0 DUP4 ADD MSTORE PUSH2 0x3905 DUP2 PUSH2 0x38C9 JUMP JUMPDEST SWAP1 POP SWAP2 SWAP1 POP JUMP JUMPDEST PUSH32 0x496E73756666696369656E742062616C616E6365000000000000000000000000 PUSH1 0x0 DUP3 ADD MSTORE POP JUMP JUMPDEST PUSH1 0x0 PUSH2 0x3942 PUSH1 0x14 DUP4 PUSH2 0x28DD JUMP JUMPDEST SWAP2 POP PUSH2 0x394D DUP3 PUSH2 0x390C JUMP JUMPDEST PUSH1 0x20 DUP3 ADD SWAP1 POP SWAP2 SWAP1 POP JUMP JUMPDEST PUSH1 0x0 PUSH1 0x20 DUP3 ADD SWAP1 POP DUP2 DUP2 SUB PUSH1 0x0 DUP4 ADD MSTORE PUSH2 0x3971 DUP2 PUSH2 0x3935 JUMP JUMPDEST SWAP1 POP SWAP2 SWAP1 POP JUMP JUMPDEST PUSH32 0x436F6E7472616374206E6F7420617070726F76656420746F207370656E642073 PUSH1 0x0 DUP3 ADD MSTORE PUSH32 0x656C6C6572277320746F6B656E73000000000000000000000000000000000000 PUSH1 0x20 DUP3 ADD MSTORE POP JUMP JUMPDEST PUSH1 0x0 PUSH2 0x39D4 PUSH1 0x2E DUP4 PUSH2 0x28DD JUMP JUMPDEST SWAP2 POP PUSH2 0x39DF DUP3 PUSH2 0x3978 JUMP JUMPDEST PUSH1 0x40 DUP3 ADD SWAP1 POP SWAP2 SWAP1 POP JUMP JUMPDEST PUSH1 0x0 PUSH1 0x20 DUP3 ADD SWAP1 POP DUP2 DUP2 SUB PUSH1 0x0 DUP4 ADD MSTORE PUSH2 0x3A03 DUP2 PUSH2 0x39C7 JUMP JUMPDEST SWAP1 POP SWAP2 SWAP1 POP JUMP JUMPDEST PUSH32 0x616D6F756E74206D7573742062652067726561746572207468616E207A65726F PUSH1 0x0 DUP3 ADD MSTORE POP JUMP JUMPDEST PUSH1 0x0 PUSH2 0x3A40 PUSH1 0x20 DUP4 PUSH2 0x28DD JUMP JUMPDEST SWAP2 POP PUSH2 0x3A4B DUP3 PUSH2 0x3A0A JUMP JUMPDEST PUSH1 0x20 DUP3 ADD SWAP1 POP SWAP2 SWAP1 POP JUMP JUMPDEST PUSH1 0x0 PUSH1 0x20 DUP3 ADD SWAP1 POP DUP2 DUP2 SUB PUSH1 0x0 DUP4 ADD MSTORE PUSH2 0x3A6F DUP2 PUSH2 0x3A33 JUMP JUMPDEST SWAP1 POP SWAP2 SWAP1 POP JUMP JUMPDEST PUSH32 0x4E6F7420456E6F7567682043435420696E206163636F756E7420746F20557469 PUSH1 0x0 DUP3 ADD MSTORE PUSH32 0x6C697A652F436C61696D20000000000000000000000000000000000000000000 PUSH1 0x20 DUP3 ADD MSTORE POP JUMP JUMPDEST PUSH1 0x0 PUSH2 0x3AD2 PUSH1 0x2B DUP4 PUSH2 0x28DD JUMP JUMPDEST SWAP2 POP PUSH2 0x3ADD DUP3 PUSH2 0x3A76 JUMP JUMPDEST PUSH1 0x40 DUP3 ADD SWAP1 POP SWAP2 SWAP1 POP JUMP JUMPDEST PUSH1 0x0 PUSH1 0x20 DUP3 ADD SWAP1 POP DUP2 DUP2 SUB PUSH1 0x0 DUP4 ADD MSTORE PUSH2 0x3B01 DUP2 PUSH2 0x3AC5 JUMP JUMPDEST SWAP1 POP SWAP2 SWAP1 POP JUMP JUMPDEST PUSH32 0x4E6F7420656E6F75676820746F6B656E7320696E2073656C6C65727320616363 PUSH1 0x0 DUP3 ADD MSTORE PUSH32 0x6F756E7420746F2066756C66696C6C20746865206F7264657200000000000000 PUSH1 0x20 DUP3 ADD MSTORE POP JUMP JUMPDEST PUSH1 0x0 PUSH2 0x3B64 PUSH1 0x39 DUP4 PUSH2 0x28DD JUMP JUMPDEST SWAP2 POP PUSH2 0x3B6F DUP3 PUSH2 0x3B08 JUMP JUMPDEST PUSH1 0x40 DUP3 ADD SWAP1 POP SWAP2 SWAP1 POP JUMP JUMPDEST PUSH1 0x0 PUSH1 0x20 DUP3 ADD SWAP1 POP DUP2 DUP2 SUB PUSH1 0x0 DUP4 ADD MSTORE PUSH2 0x3B93 DUP2 PUSH2 0x3B57 JUMP JUMPDEST SWAP1 POP SWAP2 SWAP1 POP JUMP JUMPDEST PUSH32 0x5061796D656E74207472616E7366657220746F2073656C6C6572206661696C65 PUSH1 0x0 DUP3 ADD MSTORE PUSH32 0x6400000000000000000000000000000000000000000000000000000000000000 PUSH1 0x20 DUP3 ADD MSTORE POP JUMP JUMPDEST PUSH1 0x0 PUSH2 0x3BF6 PUSH1 0x21 DUP4 PUSH2 0x28DD JUMP JUMPDEST SWAP2 POP PUSH2 0x3C01 DUP3 PUSH2 0x3B9A JUMP JUMPDEST PUSH1 0x40 DUP3 ADD SWAP1 POP SWAP2 SWAP1 POP JUMP JUMPDEST PUSH1 0x0 PUSH1 0x20 DUP3 ADD SWAP1 POP DUP2 DUP2 SUB PUSH1 0x0 DUP4 ADD MSTORE PUSH2 0x3C25 DUP2 PUSH2 0x3BE9 JUMP JUMPDEST SWAP1 POP SWAP2 SWAP1 POP JUMP JUMPDEST PUSH32 0x4E6F20736D617274206D65746572206461746120666F7220746869732074696D PUSH1 0x0 DUP3 ADD MSTORE PUSH32 0x657374616D700000000000000000000000000000000000000000000000000000 PUSH1 0x20 DUP3 ADD MSTORE POP JUMP JUMPDEST PUSH1 0x0 PUSH2 0x3C88 PUSH1 0x26 DUP4 PUSH2 0x28DD JUMP JUMPDEST SWAP2 POP PUSH2 0x3C93 DUP3 PUSH2 0x3C2C JUMP JUMPDEST PUSH1 0x40 DUP3 ADD SWAP1 POP SWAP2 SWAP1 POP JUMP JUMPDEST PUSH1 0x0 PUSH1 0x20 DUP3 ADD SWAP1 POP DUP2 DUP2 SUB PUSH1 0x0 DUP4 ADD MSTORE PUSH2 0x3CB7 DUP2 PUSH2 0x3C7B JUMP JUMPDEST SWAP1 POP SWAP2 SWAP1 POP JUMP JUMPDEST PUSH32 0x436C61696D2065786365656473207265636F7264656420656E65726779000000 PUSH1 0x0 DUP3 ADD MSTORE POP JUMP JUMPDEST PUSH1 0x0 PUSH2 0x3CF4 PUSH1 0x1D DUP4 PUSH2 0x28DD JUMP JUMPDEST SWAP2 POP PUSH2 0x3CFF DUP3 PUSH2 0x3CBE JUMP JUMPDEST PUSH1 0x20 DUP3 ADD SWAP1 POP SWAP2 SWAP1 POP JUMP JUMPDEST PUSH1 0x0 PUSH1 0x20 DUP3 ADD SWAP1 POP DUP2 DUP2 SUB PUSH1 0x0 DUP4 ADD MSTORE PUSH2 0x3D23 DUP2 PUSH2 0x3CE7 JUMP JUMPDEST SWAP1 POP SWAP2 SWAP1 POP JUMP JUMPDEST PUSH32 0x456E657267792070726F647563656420697320696E73756666696369656E7420 PUSH1 0x0 DUP3 ADD MSTORE PUSH32 0x666F7220612073696E676C652063726564697400000000000000000000000000 PUSH1 0x20 DUP3 ADD MSTORE POP JUMP JUMPDEST PUSH1 0x0 PUSH2 0x3D86 PUSH1 0x33 DUP4 PUSH2 0x28DD JUMP JUMPDEST SWAP2 POP PUSH2 0x3D91 DUP3 PUSH2 0x3D2A JUMP JUMPDEST PUSH1 0x40 DUP3 ADD SWAP1 POP SWAP2 SWAP1 POP JUMP JUMPDEST PUSH1 0x0 PUSH1 0x20 DUP3 ADD SWAP1 POP DUP2 DUP2 SUB PUSH1 0x0 DUP4 ADD MSTORE PUSH2 0x3DB5 DUP2 PUSH2 0x3D79 JUMP JUMPDEST SWAP1 POP SWAP2 SWAP1 POP JUMP JUMPDEST PUSH1 0x0 PUSH1 0x60 DUP3 ADD SWAP1 POP PUSH2 0x3DD1 PUSH1 0x0 DUP4 ADD DUP7 PUSH2 0x2DA8 JUMP JUMPDEST PUSH2 0x3DDE PUSH1 0x20 DUP4 ADD DUP6 PUSH2 0x28A8 JUMP JUMPDEST PUSH2 0x3DEB PUSH1 0x40 DUP4 ADD DUP5 PUSH2 0x28A8 JUMP JUMPDEST SWAP5 SWAP4 POP POP POP POP JUMP INVALID LOG2 PUSH5 0x6970667358 0x22 SLT KECCAK256 0x2F TIMESTAMP 0xEA 0x2C 0xAA 0xD5 0x2F SWAP9 SWAP6 0x26 0x2D 0xB3 GASPRICE ISZERO BLOCKHASH PC 0x2C CALLCODE CREATE 0x26 SWAP15 PUSH27 0xF9D39A417CDD8687EAD964736F6C634300081C0033000000000000 "},"methodIdentifiers":{"ENERGY_TO_CREDIT_CONVERSION()":"791f2f11","FloorPricePerToken()":"06377e78","GovtWallet()":"d5bb554f","OwnerburnCredits(address,uint256,string)":"1e2c2662","UtilizeCarbonCredit(uint256)":"a77fcf5b","allowance(address,address)":"dd62ed3e","approve(address,uint256)":"095ea7b3","balanceOf(address)":"70a08231","changeEnergyToCreditRatio(uint256)":"862eb703","changeFloorPricePerToken(uint256)":"0edc632e","changeGovtWallet(address)":"3e83eb09","decimals()":"313ce567","deregisterDevice(address)":"f7062c1b","earnCarbonCredit(uint256,uint256)":"ec7d3640","fulfillBatchOrders(uint256[],uint256[],uint256[])":"2166c70e","fulfillSellOrder(uint256,uint256)":"d9b60d97","logSmartMeterData(address,uint256,uint256)":"2375fce0","mintCCT(address,uint256)":"0ca67e5a","name()":"06fdde03","owner()":"8da5cb5b","placeSellOrder(uint256,uint256)":"a4406bcd","registerDevice(address)":"6dc7b9a5","registeredDevices(address)":"b8f8bbdf","renounceOwnership()":"715018a6","sellOrders(uint256)":"4a8393f3","smartMeterData(address,uint256)":"c316787c","symbol()":"95d89b41","totalSupply()":"18160ddd","transfer(address,uint256)":"a9059cbb","transferFrom(address,address,uint256)":"23b872dd","transferOwnership(address)":"f2fde38b"}}}}}